:1010000008FC032001110000C5180300F559030076
:10101000C5180300C5180300C51803000000000030
:10102000000000000000000000000000C5180300E0
:10103000C518030000000000C5180300C518030010
:10104000758F0100B98F0100C5180300C518030092
:10105000C5180300C51803006B0E03002B90010098
:1010600037900100C5180300C51803001F90010048
:10107000C5180300C58F0100C5180300C51803007B
:10108000C518030057140300C5180300C518030052
:10109000818F0100C5180300C5180300C51803009F
:1010A000C5180300C5180300C5180300C5180300C0
:1010B000C5180300C5180300000000000000000070
:1010C000C5180300C5180300C5180300C5180300A0
:1010D000C5180300C5180300C5180300C518030090
:1010E000C5180300958F0100C5180300000000001B
:1010F00000000000C518030000000000C518030030
:1011000030F0E3FB0E480F490022814201D004C0B9
:10111000FBE70D480D490E4A814202D008CA08C0BB
:10112000FAE70C484FF47001026842EA01020260DB
:10113000BFF34F8FBFF36F8F12F08FFB00DE000005
:1011400060140020A04D0020080000206014002042
:1011500000C9030088ED00E0F0B503AF2DE9000FF2
:10116000ADF5B95D81B08A468346D0E900010BF543
:1011700095620E920843CDF840A025D0012007903B
:101180000E9AD2E9F20150EA010541F0E0879BF89E
:10119000980840F20C590D95C5F20009DFE810F0EF
:1011A0000800E510E5103102E50C25024202390283
:1011B000DBF8780842F62841C2F20001CBF87C083F
:1011C000CBF8801801F0E9BB9BF86808002838D0FC
:1011D000032840F0DF839BF85408002800F01481B6
:1011E000032840F0F883DBE958010BF5B0720D924B
:1011F000084300F0258200220E98D0E9005055EAFD
:10120000000140F030849BF8CC040592DFE810F038
:10121000D009EF03AD1006003C02B7090E980BF29F
:10122000535928300F909BF85305DFE810F0050064
:10123000F2039E1091028302DBF848050E9E00F037
:10124000CFBDDBF858080BF1080ACBF85C0842F276
:101250003800C2F2000001213030D0E84F2F002AC0
:1012600041F05B82C0E8421F002AF6D1FA204EF21C
:1012700001454EF28024BFF35F8FCDF82C0F4FF461
:101280000430CDF8280FCEF200058026CEF20004FF
:101290004FF480104CF61112EE74C0F2020220607E
:1012A0000DF6287014212FF00DF8B0F1FF3F40F338
:1012B0007783002001212870A872E87142F238007B
:1012C000C2F2000084F8806101252CF04EF8B0F1E4
:1012D000FF3F40F3678342F26C00C2F20000D0E8A7
:1012E0004F1F002941F01982C0E8415F0029F6D163
:1012F00000F10109BFF35F8F48462BF033FB4FF637
:101300008063CBF860084DF200000121C4F20000B8
:101310004FF40052CFF6FF734160C0F808130BF58D
:1013200006682260E25042F67832C2F2000202F110
:101330000803D3E84F6F002E41F0EF81C3E8461F4A
:10134000002EF6D144F6C431BFF35F8FC2F2000124
:101350000BF66406C2E9001042F27000C2F200000F
:10136000012100F53060CBF86428D0E84F2F002A27
:1013700041F0D381C0E8421F002AF6D10DF628744F
:101380003146BFF35F8F204613F001FADDF8280FD6
:10139000002840F0948204F1080150464FF49C72FA
:1013A00034F042F831680DF6287642F270034A466E
:1013B000C2F20003304612F0DEF9DDF8280F0128F2
:1013C00000F0938206F1040C12A99CE87D007DC117
:1013D000484617F098FE002800F09D820146DBF891
:1013E0005C0830F0CEFB0BF5A07012A94FF4E1625F
:1013F00034F01AF80020CBF848888BF85408CDF860
:101400003CA0CBF84CA802E0DBF84C080F900BF5A1
:10141000A07C0DF6287000F1010A0DF5EA619CE848
:101420007D007DC16020C1F2000001684CF2000225
:1014300043F2A074CFF6FF72456841EA02001190B2
:10144000C2F2000404F5B4600121D0E84F2F002A55
:1014500041F06381C0E8421F002AF6D104F55879B3
:1014600049F65061C0F203014FF40E724846BFF3D3
:101470005F8F33F0D9FF4AF288080DF5ED66C0F2B0
:101480000308D8223046414633F0FBFA06F1D80073
:101490004146D82233F0F5FA06F5D8704146D822F5
:1014A00033F0EFFA06F522704146D82233F0E9FA1C
:1014B000204631464FF4587233F0E3FA00200421FD
:1014C000A4F89805012604F5B360CDE90041CDE903
:1014D00002060DF628700DF5EA614A46012314F064
:1014E00080FE0DF5805E1199AAF80410DEF8600107
:1014F000CAF8005000288DF8286F8DF82F6F40F043
:10150000B9810DF5805E0DF5ED64AAF844120DF673
:1015100028718EF868610DF5805E20464FF4F86200
:10152000CAF840528EF86F6133F07EFF0F9A0DF6C5
:101530002870214615F0E7FD42F6D874C2F2000487
:1015400004F5F860D0E84F1F002940F00882C0E899
:10155000416F0029F6D10DF6287120464FF4F8624C
:10156000BFF35F8F33F060FFD4F838026FF00041B3
:10157000884280F0858194F88004002800F08681FC
:10158000CBF8504817F049FECBF858010BF5AC707A
:101590000E9B0022CBF8B8040BF594600C900BF571
:1015A000B4708BF85C110BF505610F900BF5B07002
:1015B000CBE95822C3E900228BF8A024CBF8884459
:1015C000CBF88C44CBF890448BF8CC24CBF8B014F7
:1015D000CBF8B4440D900BF5916207CACBF8940494
:1015E000CBF89814CBF89C24AEE20E999BF8B8087F
:1015F00001F57E710A91002867D0032801F043832A
:1016000018E09BF8C008002874D0032801F00F826E
:1016100010E09BF8A008C00740F0E381DBF89C488D
:1016200001F046BC9BF8B808002801F004840328A8
:1016300001F0248447F29400C0F2030032F048FF26
:101640009BF8A0040BF5B4710F910BF59461002881
:101650000C91C0D09BF884040BF2844211920028B4
:1016600065D0032840F0CF819BF878040BF58F6894
:10167000002800F08780032800F09E8246F6606014
:10168000C0F2030032F024FF9BF848050BF5A9686F
:10169000002846D0032840F0B0819BF844050BF2A7
:1016A000445900286AD0032840F0B9819BF84205CC
:1016B0000BF2425A00286AD0032800F0C68646F68C
:1016C0004060C0F2030032F003FFD1E9000143F6AD
:1016D00008524902002341EAD05112EB402041F167
:1016E000000143F6095234F063F90E9C02460B46A2
:1016F00001F0B9BA0E9C43F608520023D4F8041442
:10170000D4F80004490241EAD05112EB402041F1E3
:10171000000143F6095234F04BF902460B4601F042
:1017200076B9DBF8D414DBF8D80400F0C4BDDBF8DC
:10173000800415E29BF87005002801F06B800328F7
:1017400001F0858047F28400C0F2030032F0C0FE51
:101750000E980BF27158B03011909BF87105DFE8CC
:1017600010F007006401040E35001C004000410524
:10177000DBF86805DBF86C15119E77E3DBF80005F4
:1017800000F003BEDBF85804DBF85C14F3E19BF8CF
:101790004005DBF83C2500F013BE9BF88C050BF2EE
:1017A0008C56DFE810F0AB034E01E20D050030006F
:1017B0009BF898050BF5B364DFE810F005004F01C6
:1017C000D70D59004A00DBF89005ABE39BF87C0588
:1017D0000BF27C54A0B1032840F02D81DBF8786532
:1017E00063E39BF895050BF29554DFE810F0A9042C
:1017F0003001BE0D05001B00DBF8B00500F0AFBCEA
:10180000DBF874654FE39BF8A6050BF2A654DFE8FE
:1018100010F005002401AC0D2A001400DBF894053B
:1018200001F049B89BF8B805C00700F0A88447F656
:101830003010C0F2030032F04BFE9BF8B005C00739
:1018400001F0548047F65010C0F2030032F040FE21
:101850009BF8A405C00700F07B8347F64010C0F258
:10186000030032F035FEDBF8A80501F031B8DBF8F3
:101870009C155DE349F2E460C0F2030032F0E3FC42
:1018800049F28470C0F2030032F0FBFC0121002019
:10189000CDF82C1F49F63861C0F20301CDF8380F9E
:1018A000CDF8340F0420CDF8281F49F64061CDF85B
:1018B000300F0DF62870C0F2030132F0B6FEDDF8ED
:1018C0002C0F47F21413CDF8680746F69C70C0F24F
:1018D00003000DF5ED62009047F22410C0F2030002
:1018E000C0F203032B2132F0A8FDDDF82C0F47F2E4
:1018F000E403CDF8680746F6C470C0F203000DF5A6
:10190000ED62009046F6AC70C0F20300C0F2030333
:10191000182132F092FD00204AF2A051CDF8380F84
:101920000120CDF82C0FC0F20301CDF8340F0DF5D6
:10193000ED60CDF8300F41F6FF50C0F20300CDF856
:10194000281FCDF86C07A7F130004AF2A851CDF856
:1019500068070DF62870C0F2030132F066FE01211F
:10196000BFF32F8F0020CDF86C1745F63C21CDF842
:101970007807C0F20301CDF874070420CDF868178A
:1019800046F61061CDF870070DF5ED60C0F2030169
:1019900032F04BFE46F6D470C0F2030032F098FDF0
:1019A000044604E00446A7F130002AF0ABFF46F6F7
:1019B0008C7047F2E403C0F203000DF62872009029
:1019C00046F66C70C0F20300C0F203031D21CDF88F
:1019D000284F32F032FD46F6E470C0F2030032F0D8
:1019E00077FD47F27400C0F2030032F071FD46F655
:1019F000F470C0F2030032F06BFD46F65060C0F2A6
:101A0000030032F065FD46F67060C0F2030032F06C
:101A10005FFD47F23800C0F2030032F059FD46F690
:101A20003060C0F2030032F053FD46F6B060C0F201
:101A3000030032F04DFD46F6C060C0F2030032F004
:101A400047FD46F6A060C0F2030032F041FD46F6C5
:101A50008060C0F2030032F03BFD46F69060C0F2B9
:101A6000030032F035FD0D9E002A40F06787D6E96D
:101A7000001281F00101114340F0688785F00103F5
:101A8000002102221843C6E9002140F06E870E9B18
:101A9000596070681A6031680843314604BF91F894
:101AA0004003032823D001F5527001F095FF47F65B
:101AB000FC700021C4F2000001220160026047F2C4
:101AC0000050C4F2000001600161416101208BF807
:101AD0005428CBE9002107908BF868280E9AD2E9A8
:101AE000F20150EA010541F03283FFF750BB91F853
:101AF0002403032804BF91F818030328D3D191F8D5
:101B0000A102052806D006280CD101F52A7010F094
:101B100049F80D9901F51C701AF036FC0D9900205A
:101B200081F8A002887E0E28BDD191F842000328DA
:101B300012BF042891F86F000428B4D101F1740099
:101B400010F030F80D99AEE700200BF284418BF8CD
:101B500084040BF29440CBF880041191DDF840A08E
:101B60000021CBF858048BF878140BF28541CBF8A0
:101B70005C140BF58F680F9A4FF0000C031D0BF5EA
:101B80008C6ECBE9A4010BF58C61CBF86C3108307D
:101B90008BF87AC10BF51C738BF89BC30BF2644670
:101BA0000BF58D650BF574748EE87C00CBF874141E
:101BB0008BF801C4CBF8FC030DF628740BF26C41D2
:101BC0005246204605F03AFB9DF8289FB9F1210FB7
:101BD0001AD10DF628740BF58E615246204602F09C
:101BE000D7FD9DF8289FB9F1210F0DD10DF628746E
:101BF0000BF274415246204603F026FC9DF8289FC4
:101C0000B9F1210F00F0CF80611CA7F1440013222D
:101C100033F004FCA7F144040DF5ED6A204651466B
:101C20006CC86CC10288807888700BF574700A806B
:101C30009BF80114052939D006293CD1DBF80C1496
:101C4000A1B3DBF808542A68002A40F0C380D5E924
:101C500001434FF0FF322A60002223B34FF40E728B
:101C6000BBF81064534304F5047204E002F50E72ED
:101C7000B3F50E7316D0947F042CF7D11488002C82
:101C800000F0A2805488A642F0D15368044619445B
:101C90005160A2F5F87108462FF045FF29682046EB
:101CA0004A1C00E00022A7F144042A601AF06CFBF1
:101CB00000208BF800049BF87A010E2808D19BF8CD
:101CC000A201032812BF04289BF8CF01042838D0B2
:101CD0005146A7F158006CC9B9F1200F6CC04FF004
:101CE00001050A88897802808170119888F800506F
:101CF00005703FF429AF0AF10100A7F15801132242
:101D00008DF8689733F08AFB002047F26401CDF824
:101D1000380F47F25C00C0F20300C0F20301CDF8B7
:101D2000280F43F68170C0F20000CDF82C5F47E920
:101D300011A00DF62870CDF8345FCDF8304F32F099
:101D400074FCDBF8D8010028C2D0DBF8D451296834
:101D500000293FD1D5E901624FF0FF312960002110
:101D6000FAB14FF40E71BBF8DC314A4306F5047149
:101D700004E001F50E71B2F50E7211D08E7F042EC3
:101D8000F7D10E8806B34E88B342F2D14A681044A8
:101D90004860A1F5F8702FF0C6FE2868411C00E0ED
:101DA0000021296094E711990320012288F800009E
:101DB00008700C9908700E98D0E9005055EA00019F
:101DC0007FF451AEFFF71FBA49F23450C0F203005E
:101DD00032F029FB49F22450C0F2030032F033FA0A
:101DE00044F60C5300214FF40042CBF22E43CBF8C3
:101DF0004C354FF61D33C6E91621C6E91821F622E7
:101E0000ABF850350BF24C53C6E90A21C6E90C2158
:101E10000122CBF82C3540F201138BF852258BF8B8
:101E20002825CBF81C254FF42032ABF820350BF5D4
:101E3000A563C6E91A11CBF83005CBF81835CBF8F5
:101E4000E014CBF8E414CBF8E814CBF8EC14C6E9B2
:101E50001221ABF8F8140021CBF868058BF8711546
:101E6000B0360F990BF27158CBF86C150022CBF8F5
:101E70005805CBF85C158BF87025CB6C08211196B2
:101E8000002B00F08C8100680BF27C5401218BF850
:101E90007C2500F5EF668BF87015CBF86005CBF864
:101EA0006405CBF87465CBF878653068002840F09D
:101EB000E1844FF0FF30DAF800103060301D2FF071
:101EC00040FE307D042840F0A9833068022131753E
:101ED000012201303060DBF85C150BF28C568BF878
:101EE0007C250023D1E91212DBF858058BF88C35DC
:101EF000CBF87405CBF87815CBF87C25DBF87405A6
:101F00000BF5B364DBF87815DBF87C25CBF880158E
:101F10000021CBF884250068CBF88805CBF8900524
:101F20008BF8981500F10801CBF89C15CBF89405B7
:101F30000879002800F04F8300200BF299518BF8AC
:101F4000A405DBF89405CBF8A0152030CBF89C0550
:101F5000012521F027FC8BF8A4558BF8985510B17A
:101F6000044600F02DBCDBF88415DBF88005CBF8C7
:101F7000B40500EBC101CBF8B815884240F080846D
:101F80000120DBF85C158BF88C0543F60952D1E98A
:101F90000C36CDF83080A3FB023506FB0256B3F1B8
:101FA000005576F14E0580F0D3835B0A41F2597EED
:101FB000D1E90E0543EAC653CDF2B71EA3FB0E3698
:101FC000A0FB02030B9605FB0232B0F1005372F145
:101FD0004E0380F03E83D1E90065400A40EAC250DA
:101FE000C84643F60959DBF86045A6FB09634FF084
:101FF000000C0A94A0FB0E0205FB0930099222682E
:1020000047F844CC27F840CC12F0010AE37918BF16
:102010009A46B6F1444270F1090280F09D83720A3B
:1020200042EAC050D1E90235A0FB0E02A3FB09032E
:1020300005FB0936B0F1444376F1090380F00983CA
:10204000400AD1E9083440EAC6500892A0FB0E05C8
:1020500043F60950A3FB006304FB0034B6F10053C0
:1020600074F14E0380F0F582760AD1E9043246EA33
:10207000C456CDF81C80A6FB0E4CA3FB004302FB0C
:102080000036B4F1624076F1040080F0E282D1E9DA
:10209000060243F60953CDF818A0A0FB039002FBFB
:1020A0000308B9F1624078F1040080F0D2820B9805
:1020B000AD0A099A4FEA5C3C098D400B089BABF8CE
:1020C0007C05520B0A98CBF8740500208BF8950517
:1020D0004FEA59209B0AABF87E2540EAC850620AB5
:1020E00041F259740B930123CDF2B714ABF880354C
:1020F000A0FB040342EAC65037F840ACA0FB040240
:10210000ABF886A50B98ABF8890506980BF29554A9
:10211000DDF840A0DDF81C90DDF830808BF88805F4
:10212000580A57F844ECABF89305500ACBF882E50F
:10213000ABF88FC5ABF88D15ABF88B55ABF89105A7
:102140000BF296500BF27C51DBF874551922CBF848
:10215000785533F063F905F10800CBF8B005007944
:10216000002800F0418200200BF296518BF8B80550
:10217000DBF87805CBF8B4152030CBF8B005DBF8E8
:10218000B0050021DBF8B4651FF0F9FE0446000637
:1021900006D001208BF895058BF8B80512E328E3EB
:1021A000304621F0F9FA04460120002C8BF8B805DE
:1021B0008BF8950540F00683DBF85C050023DBF81F
:1021C0006015D0E9120201F5EF6638318BF89C35C5
:1021D000CBF89465ABF89135CBF88405CBF888251E
:1021E000CBF88C150BF274510DF6287052460BF09B
:1021F000EFFEDDF8280F012800F0EB81DDF82C4F11
:1022000018257CB1DBF8600500218BF870159DF86E
:10221000308FD0F87817002940F02C830421202536
:1022200080F88C179BF87005012816D1DBF86465DF
:10223000D6F87807002840F01D83012086F88C0727
:102240004FF0FF30C6F8780706F284702FF06BFC71
:10225000D6F878070130C6F878074FF48070002C64
:102260008BF83C85CBF838458BF83455ABF87005C6
:1022700000F0C9820125002C8BF8C084CBF8BC4447
:102280008BF8535500F0D08142F660420020C2F234
:102290000002DBF8B4148BF8C8840BF5A9688BF83E
:1022A00048050BF2C440CBF8C444CBF8D024CBF89B
:1022B000D414CBF8D8040322CBF8E0040DF6287030
:1022C000C0F20402CBF8DC14CBF8E42419F042FF8E
:1022D000DDF8280F002800F04882DDF8302FFB23BE
:1022E0000425DBF8E4640BF59D6CDDF82C1F8CE80D
:1022F0000700F7200BF59D64CBF8F424CBF8F834F5
:10230000CBF8FC541660ADF82A0F0DF62870DBF8F8
:10231000F8648DF8285F351F17F01AFF8542C0F06A
:102320001E820DF62870DBF8F45417F011FF011D22
:1023300010F1050F98BFB14207D94AF25853042053
:10234000C0F20303324631F0E1FF0246291D0DF6CB
:10235000287017F003FFC5B2022D40F001820DF680
:10236000287017F0F5FE011DDBF8E00400250BF5E1
:10237000A06C94E84C000BF244598BF84455CBF810
:10238000FC148CE84D00CBF81015DBF804150BF2AB
:10239000425A02680079DBF80835DBF80C65DBF897
:1023A0001045CBF814150021CBF81835CBF81C6577
:1023B000CBF820458BF842158BF84005CBF83C252F
:1023C0008BF84105A7F1300CD2F8D066DBF8141574
:1023D000002EDBF81835DBF81C45DBF820558CE8BF
:1023E0003A0040F03081D2F8D8164FF0FF33C2F8EF
:1023F000D036814240F2D881D2F8D4364FF40E71F3
:1024000010FB0130B0F81012002900F05E8100F5D9
:102410000470A7F13006002457F8245C40884ACEA7
:10242000C2F8D046ABF828050BF22A5047F8421CF8
:10243000A7F14401CBF82425122247F83E3C47F887
:102440003A6C47F8365C32F0E9FFDBF82C150022D5
:10245000DBF828050029CBF82C2500F01E810BF5B0
:10246000A666CDF8301FDBF824150DF5ED644CCED3
:10247000CDF8342F0DF62872CDF8383F109BCDF8EB
:102480002C0F2046CDF83C6FCDF8403FCDF8281FEB
:1024900013F0A2F9DDF86C07002840F0AF800BF2D2
:1024A0002C500168002918BF19F06EFFDBF8E0041A
:1024B00001218BF842158BF844150268DBF8DC34F7
:1024C000DDF840A0D2F8D016002940F0BC80007999
:1024D0004FF0FF35D2F8D816D2F8D4668142C2F850
:1024E000D05640F267814FF40E7110FB016696F8EA
:1024F0003512FF2900F0EF8006F2352601313170E8
:102500000126D2F8D0160131C2F8D016DBF8D0146B
:102510008BF8486501F55C75D5E84F4F002C40F00D
:10252000FC80C5E8446F002CF6D10026BFF35F8F16
:10253000C1E9046681F86863C1E9D866C1F84463FB
:10254000C1E9CE66C1E99436C1F8586281F84C629F
:10255000C1E99166C1E90B664E630E628E60087137
:102560000A60DBF8B8048BF82B68CBF824188BF8DA
:10257000E8678BF8E565CBF8B415CBF8D0070BF519
:102580009A640DF62870524621460BF021FF9DF803
:10259000280F23281BD0204601F08AFA9BF8C81484
:1025A000DBF8C4048DF8281F0DF628710FF01DF913
:1025B0000E9E0021DBF8B0040BF253598BF8531533
:1025C00006F12801CBF848050F91FFF709BC05205B
:1025D000B2E10620AAE1DAF80000D0E9001089682B
:1025E0008847032020709FE1DAF80000D0E900104E
:1025F0008968884703202070052097E194E86E00E1
:102600000BF5A5606EC003208AF80000DDF840A03D
:1026100088F8000089F8000004208DE1306801305E
:1026200030600320207081E10E9C8BF8CC54204652
:1026300001F0D2F9059A0020C4E900500D9E002A4D
:102640003FF415AA7AE149F2DC40C0F2030031F010
:10265000FAFD0020CDF8380F0120CDF82C0F4AF2FA
:10266000FC31CDF8340F0DF5ED60CDF8300F48F2A8
:10267000B700C0F20100C0F20301CDF86C07A7F16A
:102680003000CDF8281F4AF20441CDF868070DF656
:102690002870C0F2030131F0C8FF012049F654014F
:1026A000CDF82C0F49F64C00C0F20300C0F2030134
:1026B000CDF8280F0420CDF8300F0DF62870CDF896
:1026C000382FCDF8342F31F0B0FF49F21440C0F26A
:1026D000030031F0A8FE002049F27C21CDF8380F2C
:1026E0000120CDF82C0FC0F20301CDF8340F41F6D4
:1026F0008D30C0F20100CDF8281FCDF86C07A7F18E
:10270000300049F29421CDF868070DF62870C0F228
:102710000301CDF8304F31F088FF00200121BFF3D5
:102720002F8FCDF8380FCDF82C1F45F63C21C0F285
:102730000301CDF8340F0420CDF8281F46F61061B0
:10274000CDF8300F0DF62870C0F2030131F06DFFA7
:102750000021CDF8381F80E7CDF838CF7CE7002581
:10276000204619F011FE281D00E015208DF8280FD5
:1027700047F228000121C0F2030088F80010002170
:1027800047F2F403009047F204000DF62872CDF8EA
:10279000381FC0F20300CDF8341FC0F20303CDF898
:1027A0002C1F232131F049FE49F20442C0F20302FA
:1027B00031F0B2FE49F28422C0F2030231F0ACFEE5
:1027C00001203070DBF86455D5F87807002851D126
:1027D000012085F88C074FF0FF30C5F8780705F227
:1027E00084702FF0A0F9D5F8780700210130C5F8E2
:1027F000780700208BF83545CBF8380501208BF899
:1028000034158BF87105119A00206421C2E900107B
:102810008BF870050E987D220023D0E92C01090366
:1028200041EA105100037C3033F0C2F802460DF645
:1028300028700B462FF061F8DDF82C1F0E9BDDF899
:10284000280F9DF8302FC3E92E018BF868250BF572
:10285000AC6051462FF074F80121002818BF032105
:102860008BF8701504D1DBF830050E9EFFF7F3BA34
:1028700004205EE049F6D430C0F2030031F0E3FCFE
:1028800000F10801CBF8B4154168002502780BF27D
:10289000A654DBF888058B880968CBF89915ABF846
:1028A0009D358BF8A655CBF894058BF89825CDF877
:1028B000281FADF82C3FCBF890050830DBF89815B1
:1028C000DBF89B25CBF89F15CBF8A805CBF8A22504
:1028D000007900B300200BF29F518BF8B005DBF8B4
:1028E0009005CBF8AC152030CBF8A805DBF8AC058B
:1028F00020F05AFF04460120002C8BF8B0058BF81D
:10290000A6057FF45DAFDBF8B405DBF8B8158842A7
:10291000B6D1FFF735BBDAF80000D0E900108968BE
:1029200088470320207004203070042088F80000BD
:10293000032089F8000003208BF8CC0403208BF8D7
:1029400054088BF868080020FEF719BC012100200C
:10295000CDF82C1F47F2CC01C0F20301CDF8380F9F
:10296000CDF8281FCDF8340F0CE00120CDF8381F2A
:10297000CDF82C0F47F2CC00C0F20300CDF8341F85
:10298000CDF8280F042047F2D401CDF8300F0DF612
:102990002870C0F2030131F048FE017AFF2904BF1C
:1029A000417AFF2940F02E81017EFF2904BF417E3C
:1029B000FF2940F0278190F82810FF2904BF90F8E4
:1029C0002910FF2940F01E8190F83810FF2904BF1C
:1029D00090F83910FF2940F0158190F84810FF2930
:1029E00004BF90F84910FF2940F00C8190F858106E
:1029F000FF2904BF90F85910FF2940F0038100F12E
:102A000060016430CBF89C18CBF8A00820E00DF6EC
:102A100028702EF072FFDDF8280FDDF82C1F9DF8CE
:102A2000302FC4F80804C4F80C148BF8B8280BF540
:102A30000B6051462EF084FF0121002818BF0321AE
:102A40008BF8C01840F07983DBF89C18DBF8A008FD
:102A5000814219D0481CCBF89C0808780122002339
:102A6000810600F01F004FF43F7102FA00F058BFDA
:102A70006FF0030149F801000E9C8BF8C038C4F8D0
:102A80000024C4F80434C2E749F62C51DBF87C3842
:102A9000C0F20301CA7B03F17C00CE7F91F82F5076
:102AA0008BF8AF2803F17D028BF8BF6803F17E0637
:102AB0008BF8CF5803F18005B1F82D40CBF8B02842
:102AC000B1F81D20CBF8C06803F17F06CBF8E058C1
:102AD0008133B1F83D50CBF8A008B1F80D00ABF848
:102AE000BD280622ABF8CD48CBF8D068B1F84D60D0
:102AF000B1F85D40CBF8F038ABF8DD5891F83F30D5
:102B000091F84F5091F85F108BF8EF580D9D8BF8AE
:102B1000FF180BF50A61CBF89C28CBF80429CBF8F9
:102B20000C290E9ACBF80019CBF8081942F2C071A3
:102B3000ABF8AD080020C0F209018BF8AC088BF8A7
:102B4000BC088BF8CC088BF8DC088BF8EC088BF809
:102B5000FC088BF8DF38ABF8ED68ABF8FD48C2F83D
:102B60006814C2F86C048BF828090BF6081051465B
:102B70000BF078F9022800F0E682C0072FD1DBF8CD
:102B80007C1809F54070012691F86020930602F048
:102B90001F02034606FA02F258BF4B461A6091F82C
:102BA0006120930602F01F02034606FA02F258BFA4
:102BB0004B461A6091F86220930602F01F0203460A
:102BC00006FA02F258BF4B461A6091F863108A0663
:102BD00001F01F0158BF484606FA01F10160DBF819
:102BE0009C5865B10BF6A8042079032801BF6078D2
:102BF000032820462EF024FA1034013DF4D1DBF8EE
:102C00007C080D9D002200F164016030CBF884083F
:102C1000CBF88818CBF88C28884200F04381DBF889
:102C20008C18421CCBF8842800234A1CCBF88C2833
:102C3000CBF890180122CBF894080078810600F0B8
:102C40001F004FF43F7102FA00F058BF6FF003010C
:102C500049F801000A200E9C8BF8B838C4E9FE033D
:102C600004F57E700A900DF628702EF046FEDDF811
:102C7000280FDDF82C1F9DF8302FC4F80004C4F88D
:102C800004148BF8B0280BF6A80051462EF058FE1D
:102C90000121002818BF03218BF8B81840F04F829B
:102CA000DBF87C08002400F17C0A0DE000252EF002
:102CB0005AFDDBF87C282B01D05002EB0510416057
:102CC0000134062C00F09F801AF80400810600F001
:102CD0001F004FF4417158BF042159F8011021FA27
:102CE00000F0C007ECD09BF890582EF03CFDDBF8CC
:102CF0007C285FFA84FC137A567AAB4208BF66459B
:102D0000D4D092F8188092F819E0A84508BFE6459B
:102D100053D00F9092F8280092F82990A842119170
:102D200008BFE1454BD0CDE90B9092F8381092F8EE
:102D30003900A94208BF604543D0CDE9080192F8A7
:102D4000480092F84990A84208BFE1453BD0CDF831
:102D5000189092F8581092F85990A94208BFE1458E
:102D600033D0FF2B08BFFF2E35D0B8F1FF0F08BFBF
:102D7000BEF1FF0F31D003460C980E46FF2804BF6A
:102D80000B99FF292BD0CE4640F20C59DDE90810F3
:102D9000FF28C5F2000908BFFF2930D01199FF2B89
:102DA0000F9804BF069BFF2B2BD0FF2E08BFBEF150
:102DB000FF0F7FF485AF052318E0012577E7022593
:102DC00004E0032502E0042500E0052540F20C594B
:102DD000C5F200096BE7002302E0012300E00223B3
:102DE00040F20C59C5F2000911990F981E0190513B
:102DF00002EB0310416080F809C0057260E703230D
:102E0000F2E70423F2E7DBF8940801220078810658
:102E100000F01F00494602FA00F048BF01F540717A
:102E2000086000200A9AFA21DDF840A00D9DC2E951
:102E300000108BF8B8080E9C43F608520023D4E922
:102E4000FE01490241EAD05112EB402041F100015C
:102E500043F6095232F0ACFD02460DF628700B46DF
:102E60002EF04BFDDDF8280FDDF82C1F9DF8302FDC
:102E7000C4F80004C4F804148BF8B0280BF6A800BA
:102E800051462EF05DFD0121002818BF03218BF86B
:102E9000B81840F05681DBF88408DBF888188842BF
:102EA0007FF4BDAE0E990020DBF87C48C1E9FD40FF
:102EB0002EF059FC8146207A0E46FF2804BF607A26
:102EC000FF280ED0D4E900014FF4A47200232EF0A5
:102ED000FFFCB9EB000076EB010024BF4FF6FF705A
:102EE0002081207EFF2804BF607EFF280ED0D4E919
:102EF00004014FF4A47200232EF0EAFCB9EB0000A9
:102F000076EB010024BF4FF6FF70208394F8280071
:102F1000FF2804BF94F82900FF280ED0D4E9080147
:102F20004FF4A47200232EF0D3FCB9EB000076EB33
:102F3000010024BF4FF6FF70208594F83800FF2869
:102F400004BF94F83900FF280ED0D4E90C014FF4E7
:102F5000A47200232EF0BCFCB9EB000076EB01005C
:102F600024BF4FF6FF70208794F84800FF2804BF65
:102F700094F84900FF280FD0D4E910014FF4A4724F
:102F800000232EF0A5FCB9EB000076EB010024BF76
:102F90004FF6FF70A4F8480094F85800FF2804BFCB
:102FA00094F85900FF280FD0D4E914014FF4A4720B
:102FB00000232EF08DFCB9EB000076EB010024BF5E
:102FC0004FF6FF70A4F85800DBF87C0801218BF85D
:102FD000A01840F20C59C5F200090189A0F864104C
:102FE000DBF87C18028BA1F86620DBF87C18028DD8
:102FF000A1F86820DBF87C18028FA1F86A20DBF8C2
:103000007C18B0F84820A1F86C20DBF87C18B0F8E8
:103010005800A1F86E00DBF87C08014690F870209B
:1030200011F8643F93423CD190F8652090F87130DC
:103030009A4202BF90F8662090F872309A4230D1DE
:1030400090F8672090F873309A4202BF90F8682099
:1030500090F874309A4224D190F8692090F8753035
:103060009A4202BF90F86A2090F876309A4218D1BE
:1030700090F86B2090F877309A4202BF90F86C205D
:1030800090F878309A420CD190F86D2090F8793011
:103090009A4202BF90F86E2090F87A309A4200F07F
:1030A0003B81D1E900028968DBF88048CDF8301F08
:1030B000CDF82C2FCDF8280F29F090FC216800299D
:1030C00040F06B84D4E9028E4FF0010CDDF82C2F18
:1030D0004FF0FF36DDF8303FC4F82D2018F1010223
:1030E000256ADDF8281FC4F831304EF10003C4F81A
:1030F0002910002184F828C026602162C4E9022337
:103100006DB18046002604EBC600D0E90410496882
:1031100088470136B542F6D12068411C40462160FF
:1031200029F087FCDBF87C080D9D00F1640370300A
:103130000ECB0EC0DBF87C082FE4032004E0052052
:1031400002E0062000E004200E9A8BF89808D2F8DE
:103150008804002DD2F88C1418BF0125014340F0DB
:1031600009820E980F9100F5926011909BF8E80A81
:103170000D95DFE810F00600FA00FA00AF00C3007A
:10318000A800DBF8D00ACBF8D40A29F027FC42F6D5
:103190002845C2F200052968002940F0C580696A07
:1031A000022980F0CD80002401312C60696229F071
:1031B00040FC1198CBF84059C0E9004442F6F83081
:1031C000C2F20000CBF8D80A0DF6287015F0F2FF15
:1031D000DDF8280FDDF82C1FDDF8302FDDF8343F47
:1031E000CBF84809CBF84C19CBF85029CBF8543917
:1031F000CBF85809CBF85C19CBF86029CBF86439C7
:10320000CBF86809CBF87809DDF8280FCBF86C19F2
:10321000CBF87C19DDF82C1FCBF87029CBF880296E
:10322000DDF8302FCBF87439CBF88439DDF8343F32
:10323000CBF88809CBF88C19CBF89029CBF89439C6
:10324000CBF89809CBF89C19CBF8A029CBF8A43976
:10325000CBF8A809CBF8B809DDF8280FCBF8AC19E2
:10326000CBF8BC19DDF82C1FCBF8B029CBF8C0295E
:10327000DDF8302FCBF8B439CBF8C439DDF8343F62
:10328000CBF8C809CBF8CC19CBF8D029CBF8D43976
:10329000CBF8D809CBF8DC19CBF8E029CBF8E43926
:1032A000CBF8E809CBF8EC19CBF8F029CBF8F439D6
:1032B000CBF8F809CBF8FC19CBF8002ACBF8043A84
:1032C000CBF8084A52E09BF8FC0AC00732D1DBF881
:1032D000F85A80E19BF8FC0AD8B103283FD1DBF80B
:1032E000F45ADBF8F84A29F079FB296800294DD017
:1032F00049F68420C0F2030030F0A5FF9BF8FC0AD9
:10330000C00700F08A8046F6D060C0F2030031F0BA
:10331000DFF8DBF8F04A2FE090F86F2090F87B3070
:103320009A423FF43AABBCE649F6C420C0F203002F
:1033300030F089FF46F6E060C0F2030031F0C8F8D3
:103340000021296029F075FB46F6F06046F62C72E4
:10335000C0F20300C0F203023A2131F048F846F609
:103360002060C0F2030031F0B3F8FEDE0020119CB3
:103370008BF8FC0ACBF8F04AA568CBF8F45ACBF8E6
:10338000F84A29F02BFB29680029B1D1DAF800109E
:103390004FF0FF38D4E90062D5E9023E95F828C025
:1033A000F61AC5F8008072EB0E0280F0D0805FEA5A
:1033B000CC7200F0CC80D5F829104FF00008D5F879
:1033C0002D20D5F831602360C5F80080C4F804E0F2
:1033D000CDF8281FCDF82C2FCDF8306F29F029FB20
:1033E000DDF8281F0120DDF82C2FDDF8303FCBF869
:1033F000DC1ADBF8D41A8BF8FC0A0BF6DC20CBF8CD
:10340000E02A0BF64812CBF8E43A8BF8FC8ACBF8AA
:10341000F01ACBF8F42ACBF8F80ADBF8F80A002502
:10342000DBF8F44A4FF0E809461C05E06119C87260
:1034300010350236602D7CD016F8018C96F800A06D
:10344000B8F1FF0F08BFBAF1FF0F68D0207A4045EE
:1034500004BF607A5045EBD0207E404504BF607EBB
:103460005045E5D094F82800404504BF94F8290061
:103470005045DDD094F83800404504BF94F8390039
:103480005045D5D094F84800404504BF94F8490011
:103490005045CDD094F85800404504BF94F85900E9
:1034A0005045C5D094F86800404504BF94F86900C1
:1034B0005045BDD094F87800404504BF94F8790099
:1034C0005045B5D094F88800404504BF94F8890071
:1034D0005045ADD094F89800404504BF94F8990049
:1034E0005045A5D094F8A800404504BF94F8A90021
:1034F00050459DD094F8B800404504BF94F8B900F9
:10350000504595D02EF02FF960516019416080F838
:103510000A9080F809A080F80880012086E76119E8
:1035200000200A7AFF2A04BF497AFF293FF480AFBE
:103530007CE701220BF608200BF64811CBF8001BA4
:10354000CBF8040B8BF8FC2ADDF840A0A7E005F1CE
:1035500010020446104610F084F9286801302860F3
:10356000204629F066FA0D9D03200F998BF8FC0A7E
:103570008BF8E80A0798002918BF01212840084065
:10358000012820D1DBE9001281F0010111437FF411
:10359000DDA90E9C00210223D4E9F226CBE90031FB
:1035A00082F0010232437FF4E0A904F59162C4E99C
:1035B000F231D2E9006586F0010129437FF4C6A902
:1035C0000021C2E9003180F001000DF5B95D01B0C4
:1035D000BDE8000FF0BD2EF0C6F804460E46D5E952
:1035E00000014FF4203200232EF072F9201A76EBFE
:1035F000010004D3697A287AC9B2084343D0DBF8C2
:10360000F02A01208BF8FC0ADBF8083AD2F80CC04B
:10361000D07A0B2B15D8591CD2E900651489927AFF
:10362000CBF8081A0BEB0311C1F8106AC1F8145A51
:1036300081F81A2AA1F8184AC1F81CCA81F81B0A95
:1036400029E0022827D0D2E90013D2F807208DF80C
:10365000330F46F65C70C0F20300CDF82F2FCDF883
:103660002C3F47F20413009046F63C700DF628728A
:10367000CDF8281FC0F20300C0F203031F21CDF8CC
:1036800034CF30F0DAFE40F21C505721C4F2000073
:10369000016000F09FFCDBF8001BDBF8040B4031FD
:1036A000A1F1400282422AD011F8363CA1F1300546
:1036B000CBF8005B032B40F0168185421FD011F838
:1036C000263CA1F12002CBF8002B032B40F00C810B
:1036D000824214D011F8166CA1F11003CBF8003B14
:1036E000032E40F00081834209D011F8062CCBF85C
:1036F000001B4031032AD3D0A1F15005F4E0DBF8E0
:10370000080A002800F0A2800BF648160BF5216885
:103710000DF6287902E0002800F098800138CBF8F7
:10372000080A08EB0011CA7A022A00F08F800A7A90
:103730009BF85039497A934204BF9BF851398B4228
:1037400059D09BF86039934204BF9BF861398B4292
:1037500053D09BF87039934204BF9BF871398B4268
:103760004DD09BF88039934204BF9BF881398B423E
:1037700047D09BF89039934204BF9BF891398B4214
:1037800041D09BF8A039934204BF9BF8A1398B42EA
:103790003BD09BF8B039934204BF9BF8B1398B42C0
:1037A00035D09BF8C039934204BF9BF8C1398B4296
:1037B0002FD09BF8D039934204BF9BF8D1398B426C
:1037C00029D09BF8E039934204BF9BF8E1398B4242
:1037D00023D09BF8F039934204BF9BF8F1398B4218
:1037E0001DD09BF8003A934204BF9BF8012A8A42FD
:1037F00091D10B2514E0002512E0012510E00225EF
:103800000EE003250CE004250AE0052508E0062566
:1038100006E0072504E0082502E0092500E00A2566
:10382000484615F0C7FC2801DDF8281F315006EB8B
:1038300005100430DDF82C2FDDF8303FDDF8344F73
:103840001CC0DBF8080A00287FF468AFDBF8D40A54
:103850000168D0F806204389868851407340194397
:103860003FF484AD01688088DBF8D84AADF82C0FAE
:10387000CDF8281F29F0B2F82168002940F08D808A
:10388000D4E9026E4FF0FF33DDF8282F4FF0010C22
:10389000C4F82920721C256ABDF82C1F23604EF144
:1038A0000003A4F82D10002184F828C02162C4E987
:1038B00002236DB18046002604EBC600D0E9041057
:1038C000496888470136B542F6D12068411C404618
:1038D000216029F0AEF8DBF8D40A818802684181C2
:1038E000C0F8062042E51546CBF8F05ADBF8D40ABA
:1038F000297A6A7A067842EA0111EB7ACAB23BB3B6
:1039000096421CBF457895423FF4C5AE83789342FA
:103910001CBFC47894423FF4BEAE90F804E09645D4
:103920001CBF90F805C094453FF4B5AE0022FF2EB1
:103930000CD00122FF2D1CBF0222FF2B06D0032238
:10394000FF2C1CBF0422BEF1FF0F2CD18154A2E634
:103950000021964213D04378012193420FD08378FF
:10396000022193420BD0C3780321934207D00379FD
:103970000421934203D043790521934205D1FF22CC
:103980004254DBF8D40ADBF8F05A0021CBF8F40AF1
:103990008BF8FC1ACBF8F85A1DE649F6A420C0F2C1
:1039A000030030F050FC0522BCF1FF0F08BF81542A
:1039B00071E680B56F468A68930105D4520107D439
:1039C000BDE880402EF087BEBDE880402FF07EB875
:1039D000BDE880402FF0A3B8B0B502AF82B0D0E907
:1039E0000012114301D002B0B0BD90F82410052997
:1039F0003BD0042926D0032904BF90F8AB1003293B
:103A0000F1D190F8C91003390329ECD8D0F8BC5093
:103A10000446D5F87807002844D1012085F88C07A2
:103A20004FF0FF30C5F8780705F284702EF07BF870
:103A3000D5F878070130C5F87807002084F8C80069
:103A400002B0B0BD90F8A01003291FD190F89C10CF
:103A500091B103291AD190F89A1081B1032915D197
:103A6000014651F8842F62B910E000F128010446A4
:103A7000084600F01DF808E000F15C0101E000F1EB
:103A80006C010446084618F07FFC2046C269A7F185
:103A9000090190F8200007F8090C10460DF0A5FE6A
:103AA00002B0B0BD49F6D430C0F2030030F0CBFB19
:103AB000B0B502AF044690F85B03032813D0042886
:103AC00009D0052812D1D4F8640300281CBF04F5DE
:103AD000597018F059FC94F85A03012804BF04F5F2
:103AE000507018F051FC002084F85A0394F8150126
:103AF0000338032800F2C680DFE800F0027F283E8A
:103B000094F8DC02032840F0BD8094F83C020328BE
:103B100004BF94F8D802032840F0B48094F8D4028B
:103B2000002800F00B81032840F0AC8094F8D2020A
:103B3000002800F05781032840F0A480D4F8BC028C
:103B4000002800F09F8004F52F7099E094F862013E
:103B5000032876D0042865D0052840F0938094F897
:103B6000380203286AD194F89001032804BF94F81E
:103B70002C02032862D1B9E094F8460103280ED044
:103B8000042819D194F80802032808D194F80402F3
:103B9000032804BF94F80002032800F0B980D4F889
:103BA000285128F01BFF2968002940F03B81696AF1
:103BB0000139696228F03DFF94F8300203280ED0E5
:103BC00004285FD194F8FC02032808D194F8F80285
:103BD000032804BF94F8F402032800F0B280D4F85C
:103BE000185228F0FBFE2968002940F01B81E96A81
:103BF0000139E96228F01DFF44E094F876010328BA
:103C000063D004282ED005283CD194F84C02032818
:103C100034D194F8A401032804BF94F84002032887
:103C20002CD16CE094F83802032807D194F8900165
:103C3000032804BF94F82C02032857D004F59A7087
:103C40001EE094F88401032804BF94F8200203289E
:103C500018D194F81C02032800F0978090B904F55D
:103C6000EE700DE094F84C02032807D194F8A401FB
:103C7000032804BF94F84002032840D004F5A47040
:103C800018F082FB94F81803052804BF94F8240365
:103C9000032800D0B0BD47F214100021C4F2000088
:103CA00001604FF6F461CFF6FF71012242500168C6
:103CB00041B90168002904BF0168002902D10168E7
:103CC0000029F4D000210160B0BD94F898010328C8
:103CD00004BF94F834020328D4D194F830020328A6
:103CE0006FD00028CED104F5F870C9E794F8280207
:103CF00003283CD00028A1D104F5F4707AE094F8B0
:103D00003C0203284FD00028B8D104F5FE7079E0BA
:103D100094F8FC01002862D003287FF440AF94F8A7
:103D2000FA01002874D003287FF439AFD4F8E401F5
:103D300000283FF434AF04F5F2706BE004F5257011
:103D40009EE794F8F00200284FD003287FF447AF95
:103D500094F8EE02002860D003287FF440AFD4F836
:103D6000D80200283FF43BAF04F5367057E094F8D2
:103D70002602E8B303287FF461AFD4F810020028CC
:103D80003FF45CAF04F5047034E094F81A02A0B379
:103D900003287FF477AFD4F8040200283FF472AF11
:103DA00004F501706CE794F83A0248B303287FF4F5
:103DB00065AFD4F8240200283FF460AF04F5097021
:103DC00020E094F82E0200B303287FF45BAFD4F810
:103DD000180200283FF456AF04F5067050E704F5CA
:103DE000DE7017E004F529704AE704F52C7016E040
:103DF00004F5FC7018F0C8FA20E704F5F6703FE708
:103E000004F5037018F0C0FA38E704F5007037E7DE
:103E100004F5E67018F0B8FAC1E604F5307018F051
:103E2000B3FADCE649F69420C0F2030030F00BFA56
:103E3000F0B503AF4DF804BD90B047F2A01347F2C0
:103E4000701400F10B050526C0F20303C0F2030451
:103E500047F2801CCDE90865CDE90A4347F2742397
:103E600047F250160F9000F108050DF13C0E0A3094
:103E70000A460421C0F2030CC0F20303C0F2030699
:103E8000CDE90C1E47F2601ECDE9001047F29011FB
:103E9000CDF838C047F29C2CCDE9026347F29C1361
:103EA000082404A8C0F2030CC0F2030E80E83040DE
:103EB0001046C0F20301C0F203030322CDF81CC078
:103EC0002FF0D8FD10B05DF804BBF0BD80B56F4693
:103ED000007847F660120B4647F6605180F080008C
:103EE000C0F20301C0F2030251F8201052F8202062
:103EF0001846BDE880402FF002BFD0B502AF88B0B1
:103F000047F6F10347F6C8040A46411C0DF11C0EA2
:103F100007910321C0F20303C0F2030447F6D80C53
:103F2000CDE90010C0F2030CCDE9024347F6EE03E1
:103F3000CDE9041E47F6E8011046C0F20301C0F2C5
:103F400003030622CDF818C02FF048FD08B0D0BDFD
:103F500080B56F4647F6F4020B4647F244210078DD
:103F6000C0F20302C0F20301002818BF11464FF04F
:103F70000802184618BF0722BDE880402FF0BFBED8
:103F800080B56F4684B00A4601781F2911D10430EC
:103F9000029047F6FC0047F60C11C0F2030002AB9A
:103FA00000901046C0F203010A222FF048FC04B032
:103FB00080BD039047F6181047F62811C0F20300A1
:103FC00000901046C0F2030103AB07222FF037FC2C
:103FD00004B080BD80B56F462DF047FF4EF60C5003
:103FE0000422CEF20000C0F2FA52016801F4E0614E
:103FF000114301602DF039FF2DF03AFFFCE780B549
:104000006F4680BD80B56F4680BDD4D4F0B503AF98
:104010004DF8048D0B7DDFE803F003B4BA231E00D6
:104020000B684B600833D1F80A600D89CD810E61B1
:104030008B611E79C6B9126805460C46D2E900327A
:1040400010469B6898470220214628600320087587
:104050005DF8048BF0BD8E6AD1E9084335881FE016
:104060008B691E79002EE6D04E8A0D8A1B6805EBFF
:1040700086060B834E831D047DD09DB2B4B2B4FB83
:10408000F5F505FB13630E461B0418BF013526F832
:104090001C5FA6F10E0356F8184CC6E90143F66002
:1040A000D4F80867002E60D11FFA85FCD4F81057A9
:1040B0001B8804F5E168D4F80CE74FF0FF36C4F82C
:1040C00008675DB34FF40E7465430EF5047404E0A5
:1040D00004F50E74B5F50E7520D0A67F042EF7D129
:1040E0002688E6B366889E42F2D16668664525D288
:1040F0001268A4F5F87305460C46184611462DF0D3
:1041000020FDD8F80000022221462A600130C8F8BC
:104110000000042008755DF8048BF0BD0022012525
:10412000C8F80020132244610382C0E90052C0E9AC
:10413000028C012008755DF8048BF0BDA6EB0C0223
:104140006260D8F800200132C8F800200A8BCE89BE
:104150004D6846EA024405F120020025E3E749F2F2
:10416000C430C0F2030030F05EF949F2B430C0F25E
:10417000030030F068F848F28420C0F2030030F009
:1041800081F948F27420C0F2030030F0A1F9FEDE9C
:10419000B0B502AF0546887B0C46DFE800F0033A75
:1041A00040201700606820600830B4F80B10637B73
:1041B0002181A37220610079A8B9D2E90010896831
:1041C0008847212003212870A173B0BD207EC0073D
:1041D00011D048F6A820C0F2030030F079F9206928
:1041E00000790028E9D0002004F108012076206839
:1041F0002030C4E9040160691FF0E0FA01210022C7
:10420000217600286A60687008BF20222A70A17396
:10421000B0BD48F29420C0F2030030F059F9FEDE40
:10422000F0B503AF2DE9000FC1B0804691F83C0016
:104230008A4640B103282AD19AF83800C0072CD109
:10424000DAE90C942FE0DAF80000CAF80C00408A92
:1042500050B1DAE90121CAF818000020CAE90421A6
:1042600000294DD120216DE001210020029148F666
:104270004401C0F20301059004900420019148F22A
:10428000F871039001A8C0F2030130F0CEF948F6AE
:104290000800C0F2030030F01BF948F63040C0F2CD
:1042A000030030F015F901A8FB2100F1040BFB25F8
:1042B000584630F08FFB6668208940EA064001903E
:1042C0004EB12168FB2E38BF354658462A4631F09C
:1042D000A5F8FB2E30D801A94846FF221DF036FE76
:1042E00001218AF8381060BBDAF80C0081680139C6
:1042F00038BF00218160DAF8141001200029B1D004
:10430000DAF818605446DAE903238E4228BF0E46D5
:10431000891B9D19CAE90736CAE90451118A44F874
:10432000243F41EA0030208100206660D2F80090EE
:104330002075C4E90394B6E701208AF838006FF0CD
:104340000B001F21C8F80400012088F800108AF82B
:104350003C0041B0BDE8000FF0BD80B56F468A68F3
:10436000930105D4520107D4BDE880402EF0AFBAC6
:10437000BDE880402EF064BCBDE880402EF050BD0A
:10438000B0B502AF88B00278DFE812F01F00F90084
:10439000AD00D3005A001D014101E600A2019000CA
:1043A00078014E0066002E014200C0002F000C0173
:1043B0006C01C60118012201BA01D201A1009500C9
:1043C000F6012A00DE01EA01AE01013048F65C0286
:1043D000079048F64C00C0F20300C0F203028CE0E4
:1043E00048F65B22C0F203028EE1013048F6FC126F
:1043F000079048F6EC10C0F20300C0F203020090F0
:104400000846114607AB0D222FF019FA08B0B0BDCF
:1044100048F6BA120846C0F2030211461F2208B03D
:10442000BDE8B0402FF06BBC48F679120846C0F2E8
:1044300003021146242208B0BDE8B0402FF05FBC53
:1044400048F6A0020846C0F203021146112208B045
:10445000BDE8B0402FF053BC00F1080204300792D1
:1044600048F6C002082348F6F404CDE90030C0F253
:10447000030202A848F6D00C0DF11C0E0625C0F26E
:10448000030480E8344047F2E84247F28C23C0F24C
:10449000030CC0F2030208461146CDF818C0C0F262
:1044A000030310222FF09AFA08B0B0BD48F641126B
:1044B000C0F203024CE147F2E4120846C0F20302E4
:1044C0001146042208B0BDE8B0402FF018BC48F6F1
:1044D0004B220846C0F203021146072208B0BDE88D
:1044E000B0402FF00CBC0130079048F67C0048F635
:1044F0008C02C0F20300C0F203020090084611468D
:1045000007AB03222FF09BF908B0B0BD043048F68A
:10451000D912079048F6D000C0F20300C0F203029F
:1045200000900846114607AB11222FF088F908B019
:10453000B0BD013047F20C22079048F69000C0F25F
:104540000300C0F2030200900846114607AB0822A0
:104550002FF075F908B0B0BD013048F60C12079085
:1045600048F6FC00C0F20300C0F2030200900846C7
:10457000114607AB18222FF062F908B0B0BD013028
:1045800048F67002079048F66000C0F20300C0F2DF
:10459000030207AB00900846114609222FF04FF99D
:1045A00008B0B0BD47F288420846C0F20302114687
:1045B000102208B0BDE8B0402FF0A1BB48F61B2286
:1045C000C0F20302A0E048F6B102C0F203029BE091
:1045D00048F627220846C0F2030211460B2208B013
:1045E000BDE8B0402FF08BBB013048F6B012079009
:1045F00048F6A010C0F20300C0F203020090084683
:10460000114607AB0A222FF01AF908B0B0BD00F12D
:1046100008020DF11C0E48F6F40348F6C004079298
:10462000062248F6D00CCDE9042E48F6E002C0F28E
:104630000303C0F203040430C0F2030C0825CDE9E3
:10464000024347F28C23C0F20302CDE90050084632
:104650001146CDF818C0C0F2030314222FF0BEF9A2
:1046600008B0B0BD48F609220846C0F20302114660
:10467000122208B0BDE8B0402FF041BB00F10802A3
:104680000430079248F6C002082348F6F404CDE946
:104690000030C0F2030202A80DF11C0E0625C0F284
:1046A000030480E8344048F6571248F6D00C47F22D
:1046B0008C23C0F20302C0F2030C08461146C0F27C
:1046C00003032222CDF818C02FF088F908B0B0BD3E
:1046D00048F624120846C0F2030211461D2208B013
:1046E000BDE8B0402FF00BBB48F697220846C0F259
:1046F00003021146052208B0BDE8B0402FF0FFBA12
:1047000048F63222C0F20302084611460C2208B0D5
:10471000BDE8B0402FF0F3BA47F21C220846C0F2C1
:1047200003021146082208B0BDE8B0402FF0E7BAF6
:1047300048F63E220846C0F2030211460D2208B098
:10474000BDE8B0402FF0DBBA48F66722C0F20302A2
:1047500008461146162208B0BDE8B0402FF0CFBA87
:1047600048F67D220846C0F2030211461A2208B01C
:10477000BDE8B0402FF0C3BA48F652220846C0F256
:1047800003021146092208B0BDE8B0402FF0B7BAC5
:10479000F0B503AF2DE9000FABB009689146D1F831
:1047A00000A09AF82B21DFE812F0060050054E0613
:1047B000B40226000F000390DAE90801CAF81810C5
:1047C0000068CAF81C00B6E1D9F800B003900AF5F9
:1047D000967118A85A46FFF7DBFC9DF86000212867
:1047E00017D103992120087005208AF82B012BB0DE
:1047F000BDE8000FF0BDD9F800B003900AF596713E
:1048000018A85A46FFF7C4FC9DF86000212800F064
:104810009782DAF81C40D4F87807002840F07A84B0
:10482000042084F88C074FF0FF30C4F8780704F2B6
:104830007C702DF078F9D4F878070130C4F8780747
:1048400079E10020CAE94E458AF858010AF5A070BE
:1048500032C00AF5AC780AF5A67032C018A8224614
:104860002B46D9F800B01DF0E7FA9DF8600001284A
:1048700004BF199810F1230000F06C82DDE91810D4
:104880000123CAB2022A08BF032388F8003000F0CF
:104890006B82CA0703D04FEA102C062125E0090AD3
:1048A000DAE94E2341EA006118A81EF0C3F918990D
:1048B0009DF8640006290AD1C0076FF07F4C6FF0A5
:1048C0000B004FF0060118BF6FF015000DE09DF8CA
:1048D00067C0BDF865501B9E45EA0C4CDDE91C43E2
:1048E0001A9ACDE91226CDE914430122C0B28AF802
:1048F0005C2140EA0C225046DDE91454DDE9123611
:10490000062940F8042FCDE90754CDE90536CAF849
:104910000010CAE90236CAE9045400F030820339B3
:1049200038BF0321022900F09C80002940F0038158
:1049300090E80E000DF1240C8CE80E00D0E9002662
:104940008068149048F2B420DAE90631C0F203001E
:10495000CDE9122612AA009018A811F0A3F99DF82B
:1049600060401F2C00F0E78009A81EF0FAF9142C13
:1049700018BF1B2C40F0C38109A81EF0F2F9DAF829
:104980001C806FF00041D8F80807884280F0CE8381
:1049900009A81EF0E6F9D8F80817002940F0CC83E2
:1049A000D8F810374FF0FF32D8F80CC7C8F80827EE
:1049B0000022002B00F09A834FF6C8520026CFF653
:1049C000FF72534304E006F50E66991900F09481D6
:1049D0000CEB060292F82E52042D04BFB2F810120E
:1049E000012905D1B2F8121285B28D4200F073830D
:1049F0009D1915F50E7F00F07F8192F86644042C16
:104A000004BFB2F84844012C1DD015F58E6F00F09C
:104A1000738192F89E16042904BFB2F8801601290A
:104A200017D015F5D56F00F0678192F8D6180429D4
:104A300004BFB2F8B8180129C5D1B2F8BA1885B2C6
:104A40008D42C0D145E3B2F84A4481B2A142DCD1E3
:104A50003CE3B2F8821684B28C42E2D102F58E6257
:104A600039E3D0E9001280680E90CDE90C12C0B293
:104A7000122822DC052800F0B08008285BD1DAF883
:104A80001C000CAA00F1F80100F1380318A80DF081
:104A9000DDF99DF860001F284DD0199A1B9D9DF8E7
:104AA0006310BDF861301A9E1C9C8DF85E10ADF845
:104AB0005C30CDE91265149462E11328CDF81090B2
:104AC00000F0BD803F2836D1DDE90C1218A81DF09A
:104AD0006FFB18999DF86400002900F09A831C9ED2
:104AE0001A9BDDF86520002ECDF84B30129240F075
:104AF0008F83DDF84B30129A1193CDF841209DF849
:104B000044208DF84000501E0F91112813D8DFE883
:104B100010F028004F02C3011200150256015D0279
:104B200012001200910212002502CF0212001200A0
:104B300012001200A8010AF1280440F2031140F209
:104B4000031520462FF046FFDAF81C0000218AF8F2
:104B50005C110AF5AE7600F120010AF5967032C0BC
:104B60006FE60DF16008109A40461DF0B2FB9DF80B
:104B700071609DF860C0022E00F0F0839DF86150D6
:104B80009DF86E109DF86F301E98BDF86640DDF8F8
:104B9000622000281292ADF84C4040F0DD8312985C
:104BA0004CEA0524BDF84C20ADF8642006F0010263
:104BB0001890DAF81C00CDE90082224611F0C6FAFE
:104BC0000028B8D1DAF81C001421CAF83001AAF87C
:104BD0003741AAF8391103980FE6DDE90C1218A83D
:104BE0001DF0AEFA1998002800F0D6821A98002815
:104BF00040F0D082189CDAF81C00B4F1807F4FEAB4
:104C0000146300F1380118A838BF1F23224614F49A
:104C10007F0F18BF1F230BF0CCFEDAF81C002246D2
:104C200000F5E76118A813F05BFADAF81C000169D7
:104C3000002940F087828169013181617BE7DDE9EC
:104C40000C1218A81DF099FA189E002E00F0C282CE
:104C50001B98002840F09C82199800283FF46BAF05
:104C600006EB80054FF40E7B4FF0FF3808E0002084
:104C7000C9F80807DDF810900436AE423FF45BAF88
:104C800030461DF0C6FF044630461DF0BDFFE1076B
:104C900008BF5FEAC071EFD1DAF81C90D9F80817A5
:104CA000002940F03D82D9F81037D9F80C17002BB5
:104CB000C9F80887DBD003FB0BF3220C040C01F5C9
:104CC000047004E000F50E70B3F50E73CFD0817F51
:104CD0000429F7D10188002900F016824188914209
:104CE000F0D1416821444160A0F5F8702CF01BFF21
:104CF000D9F808070130BBE70022C8F80827DAF81E
:104D00001C000169002940F0F981C1690131C161CC
:104D100011E79AF85C110AF5AE760390002946D0A7
:104D2000032940F098829AF858110AF5AC780029C6
:104D300041D0032940F095820AF5A67532CD8DE564
:104D400003992120087004208AF82B012BB0BDE8BC
:104D5000000FF0BD43F648505946C2F200002CF057
:104D6000AFFE032088F80000039A03202121307051
:104D700011708AF82B012BB0BDE8000FF0BD1F2089
:104D8000039BDDE912C6149D9DF85E10BDF85C40E2
:104D900018700120A3F80140D970C3E9012CC3E9C0
:104DA00003658AF82B012BB0BDE8000FF0BD0AF5B2
:104DB000967532CD45E50AF5A07532CD4BE5109AD2
:104DC00018A81DF011FA9DF860001B99002900F049
:104DD0006C821C994FF0000C002940F065829DF810
:104DE000614040F2E245BDF8621043F60858BDF854
:104DF000683040EA042242F200044D43C0F24E04FF
:104E0000002143F60850ADF85C20E3FB04010722C3
:104E1000189217AABDF866600023DAF81C90289251
:104E200043F60952CDF864C0ADF8806030F0C0FDA3
:104E3000CDE91E01E90D18EB452043F6095241F179
:104E40000001002330F0B4FDCDE91C0118AACDE922
:104E50001A0109F1380112A80CF023FDDDF81090B9
:104E600069E6109A18A81DF0D8FA1A98002800F0E0
:104E70006F811B98002840F06E819DF86500DDF879
:104E80006110DAF81C20C0B2090C41EA004102F5B9
:104E9000F56016F05CFB4EE6109A18A81DF0DEFADD
:104EA0009DF860101B98002800F01C821C980028B8
:104EB00040F017829DF8680000287FF43CAEBDF8F2
:104EC00062604CF2004E9DF86120C0F2090EBDF800
:104ED0006630002443F6085543F60850E6FB0E54AE
:104EE00042F2000641EA0222C0F24E060021ADF86D
:104EF0005C20E3FB06010522189217AABDF864C0E6
:104F00004FF00009DAF81C800023289243F609527A
:104F1000CDF86490DDF81090ADF878C030F048FD21
:104F2000CDE91C012846214643F60952002330F002
:104F30003FFDCDE91A0108F1380176E0DAF81C00EE
:104F40000FAA00F1F80100F1380318A80DF00FF8CE
:104F50009DF860001F283FF4EEAD9EE5109A18A85A
:104F60001DF088F99DF864109DF86000002900F09C
:104F700012821B9A002A40F00D829DF86220002ABE
:104F80007FF4D9AD9DF86120DAF81C608DF86910C6
:104F900040EA0220ADF85C0006F1380100209DF8DF
:104FA000633019900420189017A88DF868303BE002
:104FB000109A18A81DF042F91898002800F0AE8148
:104FC0001C9800283FF4B7AD0020A9E1109A18A85A
:104FD0001DF00AF99DF860001B99002900F0488136
:104FE0001C9A4FF0000C002A40F041819DF861406E
:104FF000DAF81C10BDF8682040EA0420BDF86630DD
:10500000BDF864603831BDF86250ADF85C00062030
:10501000189017A8CDF864C0ADF86E20ADF86C30CC
:10502000ADF86A60ADF86850289012A818AA0CF084
:1050300038FC80E50DF16008109A40461DF034FA06
:105040009DF87D609DF860C0022E00F0E0819DF823
:1050500061509DF87A109DF87B302198BDF866402C
:10506000DDF8622000281292ADF84C4040F0CD816E
:1050700012984CEA0524BDF84C20ADF8642006F0E7
:1050800001021890DAF81C00CDE90082224611F0E6
:105090005DF800287FF44FADDAF81C001421CAF83F
:1050A0003001AAF83741AAF839110398FFF78EBBEF
:1050B000109A18A81DF0C2F81898002800F08781EF
:1050C0001C9800283FF437AD002082E102F50E72F3
:1050D00001E002F5D5624FF49850A2F82E0208F2D2
:1050E00024702CF020FDD8F80807421CC8F80827C7
:1050F000DAF81C00016900293FF407AE48F2CC2021
:10510000C0F203002FF09FF849F23430C0F20300E0
:105110002FF089F949F6D430C0F203002FF093F84C
:1051200049F22430C0F203002FF08DF849F2A42098
:10513000C0F203002FF0A5F849F2DC40C0F20300F2
:105140002FF081F848F20470C0F203002FF07BF8D2
:105150009DF8600000E000208DF85C0000201C90AD
:105160000120199048F208411B9012A81A9047F2AA
:105170000550C0F20000C0F20301139017A8189167
:1051800048F21041129018A8C0F203012FF04DFA16
:10519000002021E0002001E09DF860008DF85C0017
:1051A00000201C900120199048F264711B9012A8F5
:1051B0001A9047F20550C0F20000C0F203011390AC
:1051C00017A8189148F26C71129018A8C0F2030148
:1051D0002FF02BFA9DF864008DF85C0000201C90E5
:1051E0000120199048F2D0711B9012A81A9047F232
:1051F0000550C0F20000C0F20301139017A81891E7
:1052000048F2D871129018A8C0F203012FF00DFADD
:1052100000208DF85C0000201C900120199048F2BD
:10522000EC611B9012A81A9047F20550C0F20000E2
:10523000C0F20301139017A8189148F2F46112907C
:1052400018A8C0F203012FF0F0F948F2A420C0F230
:1052500003002FF03DF948F64040C0F203002FF064
:1052600037F948F60830C0F203002FF031F900207A
:105270008DF85C0000201C900120199048F2186104
:105280001B9012A81A9047F20550C0F20000C0F21D
:105290000301139017A8189148F22061129018A8E2
:1052A000C0F203012FF0C1F900208DF85C0000204E
:1052B0001C900120199048F28C611B9012A81A9042
:1052C00047F20550C0F20000C0F20301139017A886
:1052D000189148F29461129018A8C0F203012FF0BF
:1052E000A4F9002100208DF85C101C900120199079
:1052F00048F2B4511B9012A81A9047F20550C0F220
:105300000000C0F20301139017A8189148F2BC5195
:10531000129018A8C0F203012FF087F99DF86400DD
:105320008DF85C0000201C900120199048F2E041AB
:105330001B9012A81A9047F20550C0F20000C0F26C
:105340000301139017A8189148F2E841129018A889
:10535000C0F203012FF069F94FF0000C002048F271
:105360002C311C9001201990C0F203011B9012A84F
:105370001A9047F20550C0F200001891139017A838
:1053800048F23431129018A8C0F203018DF85CC0C5
:105390002FF04BF900208DF85C0000201C900120BC
:1053A000199048F248511B9012A81A9047F20550E4
:1053B000C0F20000C0F20301139017A8189148F240
:1053C0005051129018A8C0F203012FF02EF99DF849
:1053D00064008DF85C0000201C900120199048F2B8
:1053E00078411B9012A81A9047F20550C0F20000B5
:1053F000C0F20301139017A8189148F2804112904F
:1054000018A8C0F203012FF010F94FF0000C002093
:1054100048F29C311C9001201990C0F203011B90AE
:1054200012A81A9047F20550C0F20000189113908C
:1054300017A848F2A431129018A8C0F203018DF801
:105440005CC02FF0F2F8FEDEF0B503AF2DE9000FDF
:10545000ADF5257DCDE908200868D0F800A00AF157
:1054600008059AF812000FF20A01CDE90A5ADFE89E
:1054700010F01500D5032F04970078008D008200EE
:1054800056015D0052007B0149017504860132001E
:10549000240094016800A2014000B001DAF8040081
:1054A000002100688AF81C105146CAF8000020301C
:1054B00041F8140FCAF8181077E0544614F81C0F7E
:1054C000DFE810F00500A603060446022302DAF81E
:1054D000140000F0A0BD524612F83A0FDFE810F0B9
:1054E0000500B603F8033B021B02DAE9076C00F083
:1054F0007CBC544614F81E0FDFE810F005008A0348
:10550000EA03430223029AF820109AF81F20DAF8DF
:10551000180001F0FEBA9AF81C00C00700F0748170
:1055200048F65830C0F203002EF0D2FF9AF81C0063
:10553000C00700F00C8148F61040C0F203002EF0C6
:10554000C7FF544614F81D0FDFE810F00500620392
:10555000C20326021F029AF81E10DAF8180001F0A2
:1055600022BB9AF82400C00741D048F63830C0F278
:1055700003002EF0ADFF9AF81C00C00700F08B80EE
:1055800048F6F820C0F203002EF0A2FF9AF81C00A3
:10559000C0075DD048F6D820C0F203002EF098FF77
:1055A0009AF81C00C00740F03F83544654F8140F8B
:1055B0000168002940F01A83022101711EF0C6F82B
:1055C000012100288AF81C1041F07585DAF80000E6
:1055D0000178012915D1D0F80110B0F8052020304C
:1055E00021600021A2808AF82410CAE90704DAF8B1
:1055F00020001EF0CBF8012100288AF8241041F089
:105600005A8554A81DF01DFC9DF85701802254991D
:1056100040F020008DF857015598CAF8240000206A
:1056200042EA11228AF81C004FF6FF70DAF80030C7
:1056300021EA000041F09C01D2B240EA0220C9B246
:105640000844514641F8200F03F12000CAE9050142
:10565000DAF818001EF074F80121002400288AF8F6
:105660001C1041F0298554A81DF0EBFB9DF8530157
:105670005246559940F002008DF853015498CAF8EB
:105680002410DAF8001042F8200F01F120008AF807
:105690001C40CAE90502DAF818001EF069F8012179
:1056A000002400288AF81C1041F0068554A81DF03B
:1056B000C8FB9DF85001559940F001008DF850014C
:1056C000CAF82410DAF8001054982031CAF81410DF
:1056D000032100F07F4241EA10418AF81C40C9B220
:1056E00042EA01411A2242EA102240F05600D2B2A8
:1056F000C0B241EA02210844514641F8200FCAF8DD
:10570000181011E0544614F81C0FDFE810F00500E3
:105710008102E10254014901DAF8140001E29AF829
:105720001C00C00740F08682DAF818001EF027F847
:105730000121002400288AF81C1041F0BD84DAF809
:1057400000005146203041F8140F0C72496054A8F3
:1057500000248DF850411EF023F8002848D0012184
:105760008AF81C1001F0A8BC9AF82400C00700F0C9
:10577000B88148F6E820C0F203002EF0A9FE544696
:1057800014F82E0FDFE810F005004402A4022701F0
:105790001A01DAF8240000F090BC544614F8340FD3
:1057A000DFE810F00500360296021C011201DAF85B
:1057B000240001F0F9B8544614F8280FDFE810F07F
:1057C00005002802880219011201DAF8140000F01D
:1057D00043BFD04618F8880FDFE810F006005C02DF
:1057E0007A022B011D010F01DAE91E5400F09BBF64
:1057F000DAF8001052469DF85001203142F8141F8B
:1058000002F8060C1472526000208DF85201ADF8B7
:10581000500154A81DF0B8FF9DF852110122BDF8A7
:10582000503100288AF81C204FF6FF7643EA0141E8
:105830004FEA012308BF23EA0602130618BF00221D
:10584000134608BF0233DE43B6070AD10999212067
:10585000087009208AF812000DF5257DBDE8000FBB
:10586000F0BD002818BF0146C8B203F0030140EAAA
:105870001220022941D1DAF80010A5F80700000C27
:105880006872D1F80807002840F0B681130ED1F8ED
:105890001047D1F80C270AF114084FF0FF304FF0F1
:1058A000000E002CC1F82C37C1F8080700F0CF809B
:1058B0004FF40E7C04FB0CF0A0F50E794BF249403E
:1058C000CEF2C260A9FB00606FEA5026B60716460A
:1058D00000F0E280400AC2F81432860700F0DA8055
:1058E00000F00300C2F84C3401281ABFC2F8843615
:1058F00002F5D56602F58E66CEE012F001044FF097
:10590000000B18BF1F2401F0D9BB9AF82800C0076C
:1059100040F0A28193E3D1460E9219F8670F0B9CD9
:10592000DFE810F00500BE01D60125057005D4E9B9
:105930001015A246D4E917C694F86620B4F864E0BE
:10594000AAE29AF82C00C00740F08C8101F0F9B867
:10595000DAF8201065E3D1460E9219F8670FDDF8EA
:105960002CA0DFE810F005009D01B50104045004EF
:10597000DAE91015DAE917C69AF86620BAF864E091
:10598000E4E2DAF8243001F0CEB89AF82800C00733
:1059900040F06E8101F01DB9DAF8202001F00BB95A
:1059A0009AF82800C00700F0CE8048F62040C0F2E8
:1059B00003002EF08DFDDAF82010B8E09AF83800D8
:1059C000C00740F03D8193E39AF84000C00740F0E3
:1059D000558101F002B8DAF830007BE3DAF83810CC
:1059E00000F0EDBF9AF83400C00740F04D8100F0A0
:1059F0004EBEDAF82C0000F03CBE554615F8D40F28
:105A0000DFE810F005005401660135002700DAF8E0
:105A1000942001F023BB544614F89E0FDFE810F0E9
:105A20000500F80058012B002000DAF8943001F04E
:105A300059BA554615F8BC0FDFE810F00500EA002A
:105A40004A0128002100DAF8904001F0F7B900205F
:105A500036E09AF8E000C00740F02E8101F01ABB52
:105A60009AF8A800C00740F0EB8001F056BADAF8C7
:105A7000D80001F003BBDAF8A00001F041BA9AF8AF
:105A8000C800C00740F01E8101F0F3B9DAF8C00089
:105A900001F0E1B902F50E76B9F5D56F0DD304FB2F
:105AA0000C22C6F8BC38C6F88436C6F84C34C6F8A2
:105AB000143206F50E669642F3D1D1F8080701308C
:105AC000C1F808070120CAF81700FF20AAF814003F
:105AD000DAF800008AF816E020308AF824E0CAE9F3
:105AE0000708DAF820001DF041FE012100288AF89D
:105AF000241041F0E082BAF80F60DAF8004026F096
:105B00006DFF217B002902BFA6600121217326F0D1
:105B100090FFDAF8000000215446CAF8140004F897
:105B20001C1F00F10801CAF82010CAF818000879F3
:105B3000A8B100200AF11D018AF82800DAF818003F
:105B40002030CAE908010020ADF80401409040A8C7
:105B50001DF013FEB0B101218AF81C10B9E00898BD
:105B60000068D0E9001089688847099903202070EF
:105B7000212008700B208AF812000DF5257DBDE864
:105B8000000FF0BDBDF804014099ADF854010120AB
:105B90005491DDF853218AF828008AF81C00080A7D
:105BA0008AF80810110CAAF80900A5F80320286843
:105BB0006971A988084318D0DAF80000A9882B6811
:105BC0000278ADF840100F937AB9D0F83812C9B9FD
:105BD000BDF8401001230F9AA0F84512002180F86B
:105BE0004032C0F8412280F8471276E048F6B820EB
:105BF000C0F203002EF027FB49F28430C0F203000C
:105C00002EF021FB49F2E460C0F203002EF01BFBF2
:105C100048F29420C0F203002EF05AFC48F6180017
:105C2000C0F203002EF054FC48F6C820C0F2030076
:105C30002EF04EFC48F62830C0F203002EF048FC4F
:105C400048F6A820C0F203002EF042FC48F2A01053
:105C5000C0F203002EF03CFC48F6D030C0F2030046
:105C60002EF036FC48F64830C0F203002EF030FC2F
:105C700048F61830C0F203002EF02AFC48F6C03077
:105C8000C0F203002EF024FC48F6E030C0F203001E
:105C90002EF01EFC48F2D010C0F203002EF018FCCB
:105CA00048F25420C0F203002EF012FC48F26420A7
:105CB000C0F203002EF00CFC48F6F030C0F20300F6
:105CC0002EF006FC48F60040C0F203002EF000FC67
:105CD000FEDE8AF8281001F0EEB9DAF800406FF025
:105CE0000041D4F88804884281F02C82D4F89014C2
:105CF0000130D4F89424C4F8880481F002001043E1
:105D00000AD12BF030FD4FF0C07240F666132BF035
:105D1000DFFD05460E460DE004F5926016F014FD19
:105D200005460E462BF01FFD4FF0C07240F666137D
:105D30002BF0CEFDD4F888040138C4F8880404F1AF
:105D4000F800CAF828000020CAE90656CAE910443B
:105D5000CAE90C44CAF838408AF820000AF1180A47
:105D600054AC089A2046514608F09EF9DDE9548B60
:105D700088F00C0050EA0B0000F08B87DDF85D1115
:105D800004F1140CDDF85901A646589ACDE91C011E
:105D900011A9CDF877209DF85891BCE87C007CC112
:105DA0009CE87D007DC1D8F109014FF000064FF05D
:105DB000020076EB0B0138BFA8F10A00022800F0C0
:105DC0000281012840F05A810B9A1C98DDF873106B
:105DD000D2F800C01646C2F81500002006F8149F3D
:105DE0009161C2E9076C02F83A0F34680E9220689C
:105DF000002841F0AD8194F824204FF0FF3020605E
:105E0000A168012A98BF0122501C84F82400B079AF
:105E1000814241F2E1816568D82100FB01F310FB6A
:105E20000151EB5A002591F8C800B1F8CA90B1F8B9
:105E3000D2A00428B1F802E00B99256041F8285F50
:105E400021F802EC21F8043CC1E90155CD600D8236
:105E50005CD0052840F0B480B0880124002BADF858
:105E60000041ADF8020101F09681704541F0938147
:105E70000B981225064626F83CAF82460020A6F86D
:105E80000290B14609F82B0F86F82A20A6F828E0E0
:105E9000C6E90115C6E908C60523DDF80CB0AAF865
:105EA0004E300423C0F208030020CAF84A3004240C
:105EB000059B042D8AF849204FF006028AF84820F5
:105EC000CAE91415CAF858001CD3DAF84C00086067
:105ED000DAF85420CAF8584022F00300042811D000
:105EE000072A41F23B81DAF85010DAF8480048609E
:105EF0000820DAF85420CAF8580022F003000828D5
:105F000040F01E82DDF81C80184645E3B08801246D
:105F1000002BADF80041ADF8020101F0358170456C
:105F200041F032810B981225064626F83CAF824696
:105F30000020A6F80290B14609F82B0F86F82A2017
:105F4000A6F828E0C6E90115C6E908C60523DDF86C
:105F500008B0AAF84E300423C0F208030020CAF8A3
:105F60004A300424049B042D8AF849204FF007028C
:105F70008AF84820CAE91415CAF858001CD3DAF880
:105F80004C000860DAF85420CAF8584022F00300A8
:105F9000042811D0072A41F2E180DAF85010DAF82B
:105FA000480048600820DAF85420CAF8580022F067
:105FB0000300082840F0C580DDF818801846C5E2C7
:105FC000DDF82CA0D9E2DDF877207546DDE91C016B
:105FD000CDF88F202C22CDE9220122A80B3011A967
:105FE0002FF01CFAD8F106014FF0030076EB0B01FD
:105FF00038BFA8F10700DFE810F00400C40419035B
:106000005F03DDF82CA000215446DAF80000CAF83E
:10601000140004F81C1F00F10801CAF82010CAF887
:1060200018000879002800F0418600200AF11D01BF
:106030008AF82800DAF818002030CAE908011DF0B3
:10604000ADFBDAF8004001208AF828008AF81C002D
:10605000D4F87807002841F06980042084F88C0780
:106060004FF0FF30C4F8780704F27C702BF05BFD32
:10607000D4F878070130C4F878072EE6DDF82CA0B4
:10608000DDE91C12DDF87730CAF819205446CAF849
:106090001C300A9BCAF815109AF81E10DAF8000096
:1060A000BAF81C2083F8251000218AF81490CAF849
:1060B0002400A3F8232004F82E1FCAF8200008307B
:1060C0009AF82D10BAF82B20CAF83000AAF8282028
:1060D0008AF82A100079002800F0AD8500200AF126
:1060E00028018AF83800DAF820002030CAE90C01CB
:1060F000DAF834001DF062FB012110F0FD0F8AF880
:1061000038108AF82E1040F0D687DAF8142010687C
:10611000002841F02B80DAF818004FF0FF369AF88B
:106120001E3091681660884281F05C804FF40E71D9
:10613000566800FB0160012180F82F3280F82E1292
:1061400064E20B2A41F21880DAF85000316881606D
:106150000C20CAF858000C20C0F20100AAF870E028
:10616000CAF8720000208AF87C00CAF868C00AF1F8
:106170006806089A54A83146FDF748FF5499022949
:1061800000F0F18557AD9DF854419DF855010DF58E
:106190001E7C2CCDC907DDF858B1BDF856818CE8BE
:1061A0002C0010D09EABDDF82CA00DF5147C212C1A
:1061B0000ECB8CE80E004FF0010189F8001040F082
:1061C000D38100F0D5BDDDF82CA09EAB0ECBCAE983
:1061D0001D230AF150028AF8690054ABCAE91BB1C9
:1061E00007CAAAF86A8007C354A88AF8684014F05E
:1061F0004CF8CAE91F600022049EDDF818808AF876
:10620000B820CAF884100AF17C0154A8FEF708F8F7
:106210009DF85041212C00F02185DDE955B20DF1AA
:10622000880CBDF85201202C9DF85111DDE957353D
:106230008CE82C003BD1DDF82CA02024DAF870C0CB
:10624000BCF1000F78D0DAF86C402068002840F0EC
:106250007387D4E901134FF0FF32226030460022E9
:10626000002B00F06D814FF40E7253430B9AB2F87D
:10627000745001F5047205E002F50E72B3F50E7369
:1062800000F05D81917F0429F6D11188002900F08A
:10629000418751888D42EFD1506860445060A2F52B
:1062A000F8702BF040FC216830464A1C48E1DDF8CC
:1062B0002CA022AB804608460ECB0DF5807EDAF886
:1062C00070C08EE80E00BCF1000F00F03F81DAF8DC
:1062D0006C502968002940F02F87D5E901234FF041
:1062E000FF31296000212BB34FF40E7102F50472C7
:1062F0004B43BAF8741005E002F50E72B3F50E7355
:1063000000F01A81967F042EF6D11688002E00F038
:1063100001875688B142EFD151688246614451608D
:10632000A2F5F87108462BF0FEFB29685046DDF80F
:106330002CA00131296009E1DDF808B0304605E103
:106340000B2A40F21987DAF8500054463168816010
:106350000C20CAF858000C20C0F20100AAF870E026
:10636000CAF8720000208AF87C00CAF868C004F1FC
:106370006805089A54A82946FDF748FE5499A24694
:10638000022900F0EE8457AE9DF854419DF8550166
:106390000DF51E7C4CCEC907DDF858B1BDF856810D
:1063A0008CE84C000ED09EAB0DF5147C212C0ECB4E
:1063B0008CE80E004FF0010189F8001040F0FA80DF
:1063C00000F0DDBC9EAB8AF86900AAF86A800ECBAB
:1063D000CAE91D230AF15002CAE91BB154AB07CA2E
:1063E0008AF8684007C354A813F04FFF0022CAE997
:1063F0001F508AF8B8205446CAF88410DDF814A05B
:10640000DDF81C8004F17C0154A8FDF709FF9DF81C
:106410005041212C00F0AE84DDE955B20DF1880C1D
:10642000BDF85201202C9DF85111DDE957368CE85A
:106430004C0039D10B992024D1F870C0BCF1000F69
:1064400075D0CC6E2068002840F07686D4E9011320
:106450004FF0FF32226050460022002B00F0938064
:106460004FF40E7253430B9AB2F8745001F5047254
:1064700005E002F50E72B3F50E7300F08380917F94
:106480000429F6D11188002900F0448651888D42F4
:10649000EFD1506860445060A2F5F8702BF043FBD8
:1064A000216850464A1C6EE0DDF82CA022AB8046E5
:1064B00008460ECB0DF5807EDAF870C08EE80E002F
:1064C000BCF1000F68D0DAF86C502968002940F060
:1064D0003386D5E901234FF0FF3129600021002BDD
:1064E00059D04FF40E7102F504724B43BAF8741090
:1064F00004E002F50E72B3F50E734BD0967F042EB6
:10650000F7D11688002E00F005865688B142F0D1EA
:106510005168824661445160A2F5F87108462BF03B
:1065200002FB29685046DDF82CA0013133E05046CB
:10653000DDF80CB08A462FE00021296006E0002239
:10654000DDF808B0DDF82CA02260202440AB0DF56A
:10655000147CCDF818800ECB04908CE80E0001213D
:1065600089F80010CDF808B094AB0DF5A27C0ECBE5
:106570008CE80E0051A9202C25D10E9901200A9BF0
:1065800008702EE00022DDF80CB0DDF82CA02260AF
:10659000202401E00021296040AB0DF5147CCDF8EA
:1065A0001C800ECB05908CE80E00012189F80010AC
:1065B000CDF80CB094AB0DF5197C0ECB8CE80E0029
:1065C00099A9202CD9D0D1E90023CDE91F230A9B1A
:1065D0000E9A896821914FF001011170DCB1132CE2
:1065E0001CD1DAF814201068002840F09985987CB6
:1065F0004FF0FF3391681360814240F2E7855368A2
:10660000D82110FB0130002180F8C810106801303B
:106610001060FFF762BBC1B20229E2D01FAB0DF5DB
:10662000A87C0ECB8CE80E0000F048BD5FEAC97074
:1066300000F062820B9B00225499CAE900121C46AA
:10664000186804F8282FAAF808209A464192ADF855
:106650000821409144F8140CCAF818000830BAF820
:106660002010DAF81C20CAF82C00CAF82220AAF858
:1066700026100079002800F05C8300200AF1220136
:106680008AF83400DAF818002030CAE90B01DAE998
:106690000B04012101251BF072FC010640F05C8314
:1066A00020461DF089F88AF834508AF828500028CE
:1066B00000F05A8200F0FFBC30AC22A904F10900BE
:1066C0003722CDF8C0808DF8C890CDF8C4B02EF038
:1066D000A5FE04204FF00009409088F006000DF55B
:1066E000807CCDF8049150EA0B0018BFA4462946DF
:1066F000AE46BCE87C00AEE87C00BCE87C00AEE8BE
:106700007C009CE87D008EE87D0050460B9A146862
:10671000924660222EF088FED04604F1380508F833
:10672000889F48E90454DAE9060601230C944FF0E7
:10673000000CD0F10104CAF880507CEB0606BAF8D0
:106740005010BAF8202038BF831ECDE90D854FF6D2
:10675000C850CFF6FF70DFE813F004007800EC00BB
:10676000A704AAF884206FF00041D5F8D0668E42C5
:1067700080F05885D5F8D8160024D5F8D48601FBCA
:1067800000FE701CC5F8D006BAF884B01EEB0405F4
:1067900000F0EF8008EB0402B2F8100201280DD1DE
:1067A00058F804C0D2F804A08CF0020151EA0A01A2
:1067B00004D0B2F812128B4500F0378215F50E7F27
:1067C00000F0D780B2F8480401280BD1D2E98ECA74
:1067D0008CF0020151EA0A0104D0B2F84A148B4548
:1067E00000F0258215F58E6F00F0C380B2F88006A8
:1067F00001280DD102F58E61D1E900CA8CF00209A1
:1068000059EA0A0304D0B2F882369B4500F0C582EB
:1068100015F5D56F00F0AD80B2F8B80804F50E6438
:106820000128B3D102F5D560D0E900CA8CF002018D
:1068300051EA0A01AAD0B2F8BA188B45A6D108EBE2
:106840000401B146A1F50E72A9E2AAF890106FF00A
:106850000041D5F8D096894580F0EA84D5F8D8165D
:1068600009F10102D5F8D4E60029C5F8D0267CD07C
:106870000B9A01FB00FB0024B2F8908004E004F5C1
:106880000E641BEB040070D00EEB0402B2F8100291
:1068900001280DD15EF804C0D2F804A08CF00201EA
:1068A00051EA0A0104D0B2F81212884500F0888338
:1068B0000BEB040111F50E7F57D0B2F84804012804
:1068C0000BD1D2E98ECA8CF0020656EA0A0604D031
:1068D000B2F84A64B04500F0758311F58E6F44D06C
:1068E000B2F8800601280DD102F58E66D6E900CAFD
:1068F0008CF0020353EA0A0304D0B2F882369845BA
:1069000000F0648311F5D56F2FD0B2F8B8080128D4
:10691000B5D102F5D561D1E900CA8CF0020353EA82
:106920000A03ACD0B2F8BA289045A8D1CB460A46A3
:106930004EE3D5F850046FF00041884280F03A846D
:10694000D5F85814431CD5F85C2481F00201C5F831
:106950005034114306D005F58B6015F0C2FFD5F811
:1069600050040138C5F850049EE30E98C0F8D09644
:1069700002E00E98C0F8D066DDF82CA0DDF8348077
:1069800092E3DDF82CA05FEAC971DAF8000000F0AC
:1069900004810021544604F8341F012204F8041C29
:1069A00044E9040244F8081C0AF1280600F1080131
:1069B0000AF1140CCAF838104CCE8CE84D00087956
:1069C000002800F0868100200AF118018AF84000B2
:1069D000DAF814002030CAE90E01DAE90E050121C7
:1069E00001241BF0CCFA010640F09E8154ACFE213C
:1069F00020462DF0EFFF297A8DF850116868D5F800
:106A0000008000288DF8510168D008EB80000C90C0
:106A1000A61C4FF0FC0907E0A946DDF834800C986D
:106A200008F10408804559D04FF0040ACDF83480AD
:106A3000B9F1000F00F0DC835446D14538BF4C4615
:106A40003046414622462EF0E9FCA9EB04052644D7
:106A5000CA45E1D9002D00F0CB83AAEB040BA0447A
:106A60005D4530465C46414638BF2C4622462EF0F6
:106A7000D5FC2D1B2644CA45CED9002D00F0B88385
:106A8000CDF83890ABEB0409A0444D454C46304658
:106A900038BF2C46414622462EF0C0FC0E98A5EB8E
:106AA000040B2644824517D9BBF1000F00F0A083E8
:106AB000A9EB0405A044AB4530462C46414638BFFF
:106AC0005C4622462EF0AAFCA044ABEB0409264407
:106AD000B5EB040AACD1A0E7D9469EE754A81CF058
