:1010000008FC03200111000081FB03000D4F0400C8
:1010100081FB030081FB030081FB03000000000053
:1010200000000000000000000000000081FB030041
:1010300081FB03000000000081FB030081FB030033
:1010400073480200B748020081FB030081FB0300E4
:1010500081FB030081FB0300FFF00300294902002C
:101060003549020081FB030081FB03001D4902009A
:1010700081FB0300C348020081FB030081FB0300E6
:1010800081FB030013F7030081FB030081FB0300D6
:101090007F48020081FB030081FB030081FB03000A
:1010A00081FB030081FB030081FB030081FB030044
:1010B00081FB030081FB0300000000000000000032
:1010C00081FB030081FB030081FB030081FB030024
:1010D00081FB030081FB030081FB030081FB030014
:1010E00081FB03009348020081FB03000000000025
:1010F0000000000081FB03000000000081FB0300F2
:101100003EF041FD0E480F490022814201D004C04B
:10111000FBE70D480D490E4A814202D008CA08C0BB
:10112000FAE70C484FF47001026842EA01020260DB
:10113000BFF34F8FBFF36F8F1AF02CFD00DE00005E
:1011400080130020F8620020080000208013002097
:10115000C0E1040088ED00E0F0B503AF2DE9000F19
:10116000ADF65C0D80460B91D0E9000141F21832DA
:1011700008EB020ACDF8348050EA0102049206D04E
:10118000DAE9060150EA010340F08185F5E09AF8BA
:10119000100040B1032800F0E18046F6B000C0F234
:1011A000040042F005FBDAF8000008F10809CAF86B
:1011B000040042F60040C2F2000001213030D0E8C5
:1011C0004F2F002A40F08481C0E8421F002AF6D148
:1011D000FA204EF201444EF28025BFF35F8F179044
:1011E0004FF404301690CEF200048026CEF20005B3
:1011F0004FF480104AF22522E674C0F20302286000
:1012000016A814213DF06AF9B0F1FF3F40F3758153
:10121000002001212070A072E07142F60040C2F26D
:10122000000085F8806101243AF0A7F8B0F1FF3F93
:1012300040F3658142F63440C2F20000D0E84F1F0F
:10124000002940F04581C0E8414F0029F6D100F166
:10125000010BBFF35F8F584639F054F9D0464FF673
:10126000806348F8080F4DF20000C4F2000001212D
:101270004FF40052CFF6FF734160C0F808132A60A4
:10128000EA5044F21802C2F2000202F10803D3E865
:101290004F6F002E40F01C81C3E8461F002EF6D190
:1012A00046F21C11BFF35F8FC2F200015646C2E93D
:1012B000001042F63840C2F2000041F2D831084432
:1012C00046F80C2F0121D0E84F2F002A40F0008172
:1012D000C0E8421F002AF6D116AD3146BFF35F8F3A
:1012E00028461FF069F91698002840F0AD8005F1F6
:1012F000080148464FF49C7243F023FB31680FAE5F
:1013000042F638435A46C2F2000330461AF048F813
:101310000F98012800F0AB8006F1040C05F5FA6186
:101320009CE87D007DC1584623F00AFB002800F0B0
:10133000B1800146DAF804003EF081FD0D9C16A94B
:1013400040F2F47204F5A07043F0FBFA0020C4F8F8
:101350003489A04684F83D09C4F838990B9908F5FA
:10136000A07001F081FB049A03208AF81000DAE9EA
:10137000060150EA010340F08A849AF8400040F2E6
:101380000C590393C5F20009DFE810F00800BD0511
:10139000BD051900B501110029002100DAF820006F
:1013A00042F6F821C2F20001CAE90901C4E054463C
:1013B00014F8600F10B3032800F0228218E054469E
:1013C00014F8680F68B3032800F0F98010E09AF869
:1013D0004800C00740F0AA80DAF8444017E35446BA
:1013E00014F8600F002800F0DE82032800F0F88275
:1013F00046F60C10C0F2040042F0DAF9DAE9120104
:1014000043F608524902002341EAD05112EB402032
:1014100041F1000143F6095243F056FD02460B46E6
:10142000E3E1DAE9140143F608524902002341EAF4
:10143000D05112EB402041F1000143F6095243F034
:1014400043FD02460B46AFE0179846F680430F90E7
:1014500046F67800C0F204000FAA009046F6544009
:10146000C0F20400C0F204032B2141F03AFF1098AF
:1014700046F62443169046F6A000C0F2040016AAD1
:10148000009046F68800C0F20400C0F20403182160
:1014900041F027FF00204AF6783113900120109088
:1014A000C0F204011290A7F12800119040F2BB0095
:1014B000C0F204000F9147F8240CA7F11D004AF672
:1014C000803147F8280C0FA8C0F2040142F01DFA41
:1014D0000121BFF32F8F0020179144F654711A9009
:1014E000C0F2040119900420169146F2246118906C
:1014F00016A8C0F2040142F008FA044604E00446CB
:10150000A7F11D0038F072FE46F6680046F6244347
:10151000C0F2040016AA009046F64800C0F204008B
:10152000C0F204031D21169441F0DBFE46F6EC00E8
:10153000C0F2040042F03CF9017AFF2904BF417A6D
:10154000FF2940F02981017EFF2904BF417EFF2948
:1015500040F0228190F82810FF2904BF90F829104C
:10156000FF2940F0198190F83810FF2904BF90F846
:101570003910FF2940F0108190F84810FF2904BF6E
:1015800090F84910FF2940F0078190F85810FF2982
:1015900004BF90F85910FF2940F0FE8000F160016F
:1015A0006430CAE9111019E016A83EF004FBDDE929
:1015B00016019DF86020CAE916018AF8602041F200
:1015C00070300B9940443EF019FB0121002818BFF0
:1015D0000321217040F05083DAE91110814217D0C5
:1015E000481CCAF8440008780122002354468106AA
:1015F00000F01F004FF43F7102FA00F058BF6FF087
:10160000030149F8010004F8683F44E90623CBE7E9
:101610004AF2900041F26D33C0F2040041F2BD3E47
:10162000B0F80D604FF0060C28F8036041F27D36EB
:10163000B0F81D2028F8062041F28D32B0F82D10A8
:1016400028F8021008EB0301C37B8B7008EB06013E
:10165000C57F41F2AD338D7008EB0201DAF82460EA
:1016600090F82F408C70514606F17C0241F8482FCB
:1016700006F17D0541F29D340D6106F17E050D6296
:101680000022B0F83D5028F804504444B0F84D50C2
:1016900028F803504344B0F85D5028F80E5006F186
:1016A0007F050D6306F180050D6406F1810590F854
:1016B0004F609E7008EB0E030D6590F83F5090F858
:1016C0005F00987042F2C070C0F209000A7341F8DE
:1016D00004CC0A7781F82C20A57081F83C2081F891
:1016E0004C2081F85C2081F88820C1E9181CC1E9F0
:1016F0001A1CC1E91C0241F2C8300B9940440BF09E
:101700002AFFDDE90332022800F0BE82C0072FD194
:10171000DAF8241009F54070012691F8602093064C
:1017200002F01F02034606FA02F258BF4B461A6047
:1017300091F86120930602F01F02034606FA02F2B6
:1017400058BF4B461A6091F86220930602F01F02C0
:10175000034606FA02F258BF4B461A6091F863102E
:101760008A0601F01F0158BF484606FA01F10160E0
:10177000DAF8444074B141F2683008EB000528798A
:10178000032801BF6878032828463DF0A3FD1035E3
:10179000013CF4D1DAF8240000F1640160300AF170
:1017A0002C03002207C3884200F02C81DAF83410A1
:1017B000421CCAF82C2000234A1CCAF83C00CAE983
:1017C0000D21012200785446810600F01F004FF4DD
:1017D0003F7102FA00F058BF6FF0030149F80100B1
:1017E0000A2004F8603F44E9060316A83EF0E3F936
:1017F000DDE916019DF86020CAE914018AF8582035
:1018000041F268300B9940443EF0F8F9012100287C
:1018100018BF0321217040F03182DAF8240000263D
:1018200000F17C080FE00124D146DA463EF0F9F8D9
:10183000DAF824202301D05002EB04104160013675
:10184000062E00F0998018F80600810600F01F00AF
:101850004FF4417158BF042159F8011021FA00F0EA
:10186000C007ECD09AF838403EF0DBF8DAF82420D4
:101870005FFA86FC137A557AA34208BF65455BD0B0
:10188000D346CA4692F8189092F819E0A14508BFCD
:10189000E645C8D00E900C9192F8280092F82910D5
:1018A000A04208BF614549D0CDE9091092F838102F
:1018B00092F83900A14208BF604541D0CDE9070147
:1018C00092F8481092F84900A142069108BF60457D
:1018D00038D0059092F8580092F85910A04208BFED
:1018E000614531D0FF2B08BFFF2D2FD0B9F1FF0F7D
:1018F00008BFBEF1FF0F2BD005460A98D146FF283E
:1019000004BF0998FF2826D08E46DDE90701FF298C
:101910000C99DA4608BFFF282AD00698FF280E98AF
:1019200004BF059BFF2B25D0FF2D08BFBEF1FF0F85
:101930007FF485AF052312E0002477E7022473E7E4
:10194000032471E704246FE705246DE7002300E01A
:101950000123D14600E00223DA460C990E981D01BE
:10196000505102EB0310416080F809C0047266E731
:101970000323F3E70423F2E7DAF83C00012254469C
:101980000078810600F01F00494602FA00F048BFC7
:1019900001F5407108600020DDF83480FA2104F878
:1019A000600F44E90610DAE9120143F608524902D1
:1019B000002341EAD05112EB402041F1000143F6EF
:1019C000095243F081FA024616A80B463EF0F3F89E
:1019D000DDE916019DF86020CAE914018AF8582053
:1019E00041F268300B9940443EF008F9012100288B
:1019F00018BF0321217040F04381DAE90B018842CE
:101A00007FF4D4AEDAF824400020CAE911403EF059
:101A100008F80646207A0D46FF2804BF607AFF28A2
:101A20000DD0D4E900014FF4A47200233EF0AEF8CB
:101A3000301A75EB010024BF4FF6FF702081207E25
:101A4000FF2804BF607EFF280DD0D4E904014FF4C5
:101A5000A47200233EF09AF8301A75EB010024BFFF
:101A60004FF6FF70208394F82800FF2804BF94F8F5
:101A70002900FF280DD0D4E908014FF4A4720023F7
:101A80003EF084F8301A75EB010024BF4FF6FF706A
:101A9000208594F83800FF2804BF94F83900FF2807
:101AA0000DD0D4E90C014FF4A47200233EF06EF87F
:101AB000301A75EB010024BF4FF6FF70208794F8B1
:101AC0004800FF2804BF94F84900FF280ED0D4E94D
:101AD00010014FF4A47200233EF058F8301A75EB51
:101AE000010024BF4FF6FF70A4F8480094F8580096
:101AF000FF2804BF94F85900FF280ED0D4E9140140
:101B00004FF4A47200233EF041F8301A75EB010047
:101B100024BF4FF6FF70A4F85800DAF82400012122
:101B20008AF848100189A0F86410DAF82410028BB2
:101B3000A1F86620DAF82410028DA1F86820DAF8FE
:101B40002410028FA1F86A20DAF82410B0F8482097
:101B5000A1F86C20DAF82410B0F85800A1F86E0053
:101B6000DAF82400014690F8702011F8643F93429F
:101B70003CD190F8652090F871309A4202BF90F8FD
:101B8000662090F872309A4230D190F8672090F831
:101B900073309A4202BF90F8682090F874309A42ED
:101BA00024D190F8692090F875309A4202BF90F8DD
:101BB0006A2090F876309A4218D190F86B2090F80D
:101BC00077309A4202BF90F86C2090F878309A42B1
:101BD0000CD190F86D2090F879309A4202BF90F8BD
:101BE0006E2090F87A309A4200F03D81D1E90002EF
:101BF0008968DAF828401891CDE9160238F0BEFC61
:101C00002168002940F0228716ABC346D4E9028E32
:101C10004FF0010C0ECB4FF0FF36C4F82D2018F119
:101C20000102256AC4F831304EF10003C4F82910CE
:101C3000002184F828C026602162C4E902236DB126
:101C40008046002604EBC600D0E9041049688847A6
:101C50000136B542F6D12068411C4046216038F07B
:101C6000B8FCDAF82400D84600F1640370300ECBDB
:101C70000EC0DAF824005FE4032002E0052000E053
:101C80000620DDE9033200E004208AF84000DAE9AA
:101C90003601002B18BF0123002A18BF012201437F
:101CA00040F018820AF1E0000A909AF8A00202912E
:101CB00004920393DFE810F00A00270127013501A1
:101CC000B800A700D000C100C800B000DAF8900248
:101CD000CAF8940238F052FC42F6F824C2F200042A
:101CE0002168002940F0C780616A022980F0ED80F8
:101CF000002501312560616238F06BFCCAE9385576
:101D0000CAF8E84038F03AFC42F63035C2F2000535
:101D10002968002940F0AF80696A022980F0E480D8
:101D2000002401312C60696238F053FC42F68820AF
:101D3000CAE93C44C2F20000CAF8F850CAF8980256
:101D400016A822F06AFE16AE41F2184041F248454C
:101D5000CAF8C0414ECE48F80010404404304CC090
:101D600041F2284048F80010404404304CC041F291
:101D7000384048F80010404404304CC008EB0500DF
:101D800004304CC016AE41F2584048F8051041F2FC
:101D900088454ECE48F80010404404304CC041F213
:101DA000684048F80010404404304CC041F278408C
:101DB00048F80010404404304CC008EB05000430E3
:101DC0004CC016AE41F2984048F8051041F2C845A3
:101DD0004ECE48F80010404404304CC041F2A840B8
:101DE00048F80010404404304CC041F2B84048F874
:101DF0000010404404304CC008EB0500043048F8A3
:101E000005104CC080E09AF8C002C00739D1DAE969
:101E1000AD39DAF8BC52ACE09AF8B002C00736D15E
:101E2000DAF8AC4200F08ABC9AF8C002C00734D19C
:101E3000DAE9AD39DAF8BC529EE09AF8B002C00790
:101E400031D1DAE9AA01ACE39AF8B002C00730D187
:101E5000DAE9AA0100F018BC9AF8B002C0072ED146
:101E6000DAF8AC0218E290F86F2090F87B309A42D2
:101E70003FF462ABBAE649F6C010C0F2040041F08C
:101E800041F846F2D460C0F2040041F091FC46F201
:101E90000470C0F2040041F08BFC46F2B460C0F262
:101EA000040041F085FC46F2E460C0F2040041F019
:101EB0007FFC46F2F460C0F2040041F079FC46F287
:101EC0009460C0F2040041F073FC0021216038F0FE
:101ED00080FB46F2147046F25072C0F20400C0F269
:101EE00004023A2141F0D7F90021296038F071FB52
:101EF00046F2607046F29C72C0F20400C0F2040226
:101F00003A2141F0C8F9FEDE002041F208418AF88A
:101F1000C40241448AF8B4020A98CAF8B812CAF84E
:101F2000A80208F5AE550B9A16A8294608F03CFC05
:101F30009DF85800022800F0C780DDF859100DF117
:101F40003C0CDDF86130C007DDF85D208CE80E0048
:101F500085E80E004FF00001DAF894328AF8C012DA
:101F600041F2184108EB0109CAF8BC52CAE9AD397F
:101F700002D06C1C0026FEE005F101084FF0000BBA
:101F80000AE009EB0B01C8720BF1100B08F1020813
:101F9000BBF1600F00F0728118F8015C98F80060E6
:101FA000FF2D08BFFF2E00F0848099F80800A8429A
:101FB00004BF99F80900B042E6D099F81800A84289
:101FC00004BF99F81900B042DED099F82800A84261
:101FD00004BF99F82900B042D6D099F83800A84239
:101FE00004BF99F83900B042CED099F84800A84211
:101FF00004BF99F84900B042C6D099F85800A842E9
:1020000004BF99F85900B042BED099F86800A842C0
:1020100004BF99F86900B042B6D099F87800A84298
:1020200004BF99F87900B042AED099F88800A84270
:1020300004BF99F88900B042A6D099F89800A84248
:1020400004BF99F89900B0429ED099F8A800A84220
:1020500004BF99F8A900B04296D099F8B800A842F8
:1020600004BF99F8B900B0428ED093F860000128FF
:1020700000F26982042D80F06D820C2E80F0728255
:1020800000EB400005EB45011C4603EB001000EBA4
:102090008100805D0E903DF0C4FC49F80B0009EB17
:1020A0000B00234641600E99817246720572012031
:1020B00067E709EB0B0100200A7AFF2A04BF497A7F
:1020C000FF293FF461AF5CE7049A0320DDE90213C6
:1020D0008AF8A00202EA0300002918BF0121084083
:1020E00001281DD1D8E9001281F00101114340F00F
:1020F0000D82DAE906360021022283F00103C8E9E5
:102100000021334340F00D82DAE93636CAE9062170
:1021100083F00101314340F0F9810021CAE9362101
:1021200080F001000DF65C0DBDE8000FF0BD00EB86
:10213000400005EB450109EB060B0E9303EB001085
:1021400000EB810010F808000C903DF06AFCCBE930
:1021500018010C988BF86A0001200E9B8BF869809F
:102160008BF8685009EB060181F86B0010360234D9
:10217000602E00F0838014F8015C94F80080FF2D3D
:1021800008BFB8F1FF0F6CD099F80800A84204BF4F
:1021900099F809004045E9D099F81800A84204BF11
:1021A00099F819004045E1D099F82800A84204BFE9
:1021B00099F829004045D9D099F83800A84204BFC1
:1021C00099F839004045D1D099F84800A84204BF99
:1021D00099F849004045C9D099F85800A84204BF71
:1021E00099F859004045C1D099F86800A84204BF49
:1021F00099F869004045B9D099F87800A84204BF21
:1022000099F879004045B1D099F88800A84204BFF8
:1022100099F889004045A9D099F89800A84204BFD0
:1022200099F899004045A1D099F8A800A84204BFA8
:1022300099F8A900404599D099F8B800A84204BF80
:1022400099F8B900404591D093F86000012800F258
:102250009181042D80F09581B8F10C0FFFF467AFE8
:1022600097E109EB0601002091F86820FF2A04BFDE
:1022700091F86910FF297FF475AF77E701200D9A77
:102280008AF8C00200208AF8B00241F218401044D7
:10229000DAF89412CAE9AA1090F8BA100C9190F8E2
:1022A0000AB090F8AAE090F89A10BBF1E00F90F80D
:1022B0008A4090F87A5090F86A2090F85A9090F8F6
:1022C0004A3090F81AC090F83A8090F82A600E963A
:1022D00018BFBCF1E00F75D1BBF1070F18BFBCF1FF
:1022E000070F1BD00E460E990729314618BFB8F1CB
:1022F000070F13D0072B18BFB9F1070F0ED0072A0D
:1023000018BF072D0AD0072C18BF072906D0BEF129
:10231000070F1CBF0C9E072E40F0EA80CDE9081E77
:10232000ABF1E00EACF1E001BEFA8EFEB1FA81F144
:10233000A8F1E006B6FA86F605934FEA511C4FEA7B
:102340005E114CEA010C0E9976090692E039079469
:10235000B1FA81F1DDF824E0490941EA0C010E43AC
:10236000A3F1E001B1FA81F1A9F1E003B3FA83F33B
:10237000490931435B090B43A2F1E001B1FA81F154
:10238000A5F1E002B2FA82F24909194352090A435F
:10239000A4F1E001089CB1FA81F1E03C4909B4FAEA
:1023A00084F41143640921435FEAC1782DD1BEF161
:1023B000E00F1CBF0C99E02927D00021BBF1070FCB
:1023C0005CD191E04E46DDF83890B9F1E00FB146AE
:1023D0003FF482AFB8F1E00F18BFE02B3FF47CAFC1
:1023E000B9F1E00F18BFE02A3FF476AFE02D18BF37
:1023F000E02C3FF471AFE02918BFBEF1E00F3FF4CD
:102400006BAF0C9EE02E73D166E7BBF1E0014FF09D
:10241000030518BF01210E9CE02C08BF0225BCF16A
:10242000000F18BF0D46059C0521E02C08BF0421B4
:10243000002E18BF2946069D0726E02D08BF062658
:10244000002B18BF0E46079B0921E02B08BF08216F
:10245000D20718BF31460B22BEF1E00F08BF0A2297
:10246000B8F1000F18BF0A4600EB0211E0228A7291
:1024700090F80AB00021BBF1070F35D0827E012110
:10248000072A31D090F82A200221072A2CD090F870
:102490003A200321072A27D090F84A200421072A4E
:1024A00022D090F85A200521072A1DD090F86A20E2
:1024B0000621072A18D090F87A200721072A13D07E
:1024C00090F88A200821072A0ED090F89A20092136
:1024D000072A09D090F8AA200A21072A04D090F8E8
:1024E000BA200B21072A03D100EB01102A218172A7
:1024F000DDF8348041F2D84041F2184101224044D5
:1025000041448AF8B022CAE9A21054E10121002016
:10251000179146F64411C0F204011A9016911990D1
:1025200008E001201A91179046F64410C0F204000A
:1025300019911690042046F64C11189016A8C0F276
:10254000040141F0E2F946F2A4620221C0F2040261
:1025500041F052F946F2A462C0F204022846042176
:1025600041F04AF946F2A4623046C0F204020C215E
:1025700041F042F946F2C4620221C0F2040241F085
:102580003BF946F2C462C0F204022846042141F03D
:1025900033F946F2C4624046C0F204020C2141F015
:1025A0002BF90978A1F1C5062F2E2BD80122002383
:1025B000DFE806F020282828282828282828282886
:1025C000282828282828282828282828282828248F
:1025D00028585A1818181828282828282828285D24
:1025E0005C1E262290F86110194380F8611040E0CB
:1025F00003223CE00223F5E7052238E00123F1E75E
:10260000042234E0024612F8643F8B421CBF90F86B
:1026100065508D422DD090F866408C421CBF90F8DA
:1026200067608E4225D090F868E08E451CBF90F818
:10263000690088421DD04FF0000C83B14FF0010CAF
:10264000002D1CBF4FF0020C002C08D04FF0030CE3
:10265000002E1CBF4FF0040CBEF1000F0DD102F88C
:102660000C1006E00423BDE70823BBE7022280F834
:10267000602001208AF8B0029BE04FF0050C002892
:1026800008BF02F80C10F4E70978A1F1C5032F2B5D
:1026900024D8FF22DFE803F01E2222222222222257
:1026A000222222222222222222222222222222220A
:1026B0002222222022414344444444222222222234
:1026C000222222181818181890F86010013980F882
:1026D00060102AE0FD2223E0FE2221E002460023D2
:1026E00012F8646F8E424FF0000614D090F86550D7
:1026F00001268D420FD090F8665002268D420AD0F6
:1027000090F8675003268D4205D090F86850042653
:102710008D4240F07781935507E0FB2200E0F722DD
:1027200090F86110114080F86110DAF89C420021A5
:10273000DAF894028AF8B012CAE9AA043DF071F9F5
:1027400005460E46D4E900014FF4203200233DF047
:102750001DFA281A76EB010005D3617A207AC9B2F6
:10276000084300F07981DAF89C2201208AF8B0024F
:10277000DAF8C031D2F80CC0D07A0B2B16D808EB9F
:102780000314D2E900654FF4A751B2F808E0927A39
:102790006650591CCAF8C01104F5A7514D608A72E1
:1027A000A1F808E0C1F80CC0C87202E0022840F0AD
:1027B0003081DAE9A2104031A1F1400383422AD0EE
:1027C00011F8366CA1F13002CAF88822032E40F0CD
:1027D000088182421FD011F8266CA1F12003CAF8AB
:1027E0008832032E40F0FE80834214D011F8166C1C
:1027F000A1F11002CAF88822032E40F0F280824232
:1028000009D011F8062CCAF888124031032AD3D017
:10281000A1F15002E6E0DAF8C001C346002800F05A
:102820009E8041F218410BEB01050BF5A7580DF105
:10283000580902E0002800F092800138CAF8C0016F
:1028400008EB0011CA7A022A00F089800A7A9AF805
:102850000831497A934204BF9AF809318B4259D022
:102860009AF81831934204BF9AF819318B4253D029
:102870009AF82831934204BF9AF829318B424DD0FF
:102880009AF83831934204BF9AF839318B4247D0D5
:102890009AF84831934204BF9AF849318B4241D0AB
:1028A0009AF85831934204BF9AF859318B423BD081
:1028B0009AF86831934204BF9AF869318B4235D057
:1028C0009AF87831934204BF9AF879318B422FD02D
:1028D0009AF88831934204BF9AF889318B4229D003
:1028E0009AF89831934204BF9AF899318B4223D0D9
:1028F0009AF8A831934204BF9AF8A9318B421DD0AF
:102900009AF8B831934204BF9AF8B9218A4291D11A
:102910000B2414E0002412E0012410E002240EE055
:1029200003240CE004240AE0052408E0062406E061
:10293000072404E0082402E0092400E00A244846B1
:1029400022F06BF816AE20014ECE295005EB041094
:1029500004304CC0DAF8C00100287FF46EAFDAE929
:10296000A504D0F86520D0F8611090F86900CDE991
:1029700016128DF8600037F001FE2168002965D13C
:10298000DDE916124FF0010CD4E9028E4FF0FF364C
:102990009DF86030C4F82D2018F10102256A84F8F2
:1029A00031304EF10003C4F82910002184F828C00A
:1029B00026602162C4E902236DB18046002604EB43
:1029C000C600D0E90410496888470136B542F6D1FF
:1029D0002068411C4046216037F0FBFDD846FFF7D8
:1029E00093BA1A46CAF89C220021DAF89402D37AE4
:1029F0008AF8B01202F10A01002BCAE9AA017FF499
:102A0000D0AD41E690F869000526884208BF93558D
:102A10008BE6D2E90013D2F807208DF8630046F266
:102A2000CC70C0F20400CDF85F20CDE9161346F655
:102A30003443009046F2AC7016AAC0F20400C0F213
:102A400004031F21CDF864C040F04BFC49F6B010E0
:102A5000C0F2040040F056FA40F21C505721C4F274
:102A60000000016004F0D8FAF0B503AF2DE9000FC3
:102A7000ADF5A75D87B082460DF668000130119074
:102A80000DF50360894600F1180E9AF8FD070AF665
:102A9000080BCDE912B9DFE810F005008D04BB0783
:102AA0000301F6000AF5FA6C16A944F6280B9CE817
:102AB0007D00C2F2000B7DC14CF20002CFF6FF7226
:102AC000DAF8F407CAF8E8076020C1F20000DAF883
:102AD000F8370168446841EA020015900BF6383077
:102AE0000121D0E84F2F002A40F0E083C0E8421FC8
:102AF000002AF6D1CDF850E00DF1080E4AF280150B
:102B00000EF58456C0F204051093304629464FF462
:102B10000E72BFF35F8F41F014FF06F50E70294669
:102B20004FF40E7241F00DFF0BF5D86531464FF4AE
:102B30008E62284641F005FF4AF2B8390DF170085F
:102B4000C0F20409D8224046494641F0A0FE08F1EF
:102B5000D8004946D82241F09AFE08F5D870494677
:102B6000D82241F094FE08F522704946D82241F05F
:102B70008EFE08F558704946D82241F088FE08F5C7
:102B800087604946D82241F082FE08F5A260494696
:102B9000D82241F07CFE08F5BD604946D82241F0BC
:102BA00076FE584641464FF4D86241F070FE002050
:102BB0000821ABF8300B01260BF53360CDE900B1ED
:102BC000CDE902060DF6680016A92A4602231EF07A
:102BD0007EFF1199159ADDF8A00A8A8000280C6002
:102BE0008DF868688DF86F6840F029831CADA1F8F6
:102BF0004422C1F840420DF6680128464FF4F862BD
:102C00008DF8A86A8DF8AF6A41F09BFE109A0DF618
:102C1000680029461AF0DFFCDDF8680F002840F054
:102C2000148303200DF668018DF86C0F1CA84FF477
:102C3000F86241F086FE44F26005DDF84C90C2F285
:102C4000000505F5F8600121D0E84F2F002A40F07B
:102C50002D83C0E8421F002AF6D11CA928464FF454
:102C6000F862BFF35F8F41F06CFEDAF8E8070021ED
:102C7000CAF8EC570AF624088AF824180AF5006BFB
:102C8000CAF800081DE0DBE90001084300F0D0802D
:102C90000122DBE9D201014342F0C68500F0CEBD3E
:102CA0009AF824080AF5006BCDF850E00AF62408DB
:102CB000DFE810F005008603AE060801EF00DBF840
:102CC000000000214FF0200C4FF428234FF4202661
:102CD000CAF804180AF62505CAF808180AF6040204
:102CE000CAF80C18CAF81018CAF81418CAF8181834
:102CF000CAF81C18CAF820188AF87D180AF67D014F
:102D000015910AF62801CAF87408CAF87858CAF862
:102D10004028CAF844C8CAF82868CAF82C38109164
:102D200000244FF480718AF87C48CAF84808CAF831
:102D30004C58AAF82919CAF82009CAF82459CAF81F
:102D4000F048CAF8E068CAF8E438CAF83068CAF847
:102D50003438CAF83828CAF83CC80AF508610DF6B4
:102D6000680002F0D5FFDDF86828082A07D10320A3
:102D700015990870032088F80000032062E3DDF84D
:102D80006C18072ADDF8700878D10722CAF8601895
:102D9000C907CAF85C28CAF8640800F0B580DAF8F8
:102DA0003018DAF834288A4242F22880511A002278
:102DB000B2EB113F02F02280090B0130B0FBF1F2BF
:102DC00002FB11020720CAF85428CAF85008DAF8A2
:102DD00034184FF48070129D0AF50E64DAF830381A
:102DE000DAF84868C5E938312021DAF84CC80AF524
:102DF0000465AAF87C080020CAF8F428CAF8F0286C
:102E000003EB023202F6FC738AF840080AF604006B
:102E10000432CAF82848CAF82C08CAF83018CAF888
:102E2000E068CAF8E4C8CAF8FC38CAF8F8283FE0F5
:102E30009AF8480B0AF648310AF501621492002804
:102E4000109100F064839AF82C0B0AF62C3215923C
:102E5000002800F07D80032840F0B8829AF8200B0B
:102E60000AF5326B002800F0B280032800F0CD8311
:102E700046F25460C0F2040040F09AFCCAF85C28A4
:102E8000CAF86018CAF864084FF48070AAF87C0881
:102E9000E0E29AF840080AF50465DFE810F0050062
:102EA0009D02B905C7055B0FDAF82C08DAF830186F
:102EB000DAF82828CAF83428CAF83808CAF83C18BA
:102EC00000F0A7BD0AF6280010900AF67D001590C4
:102ED0009AF87D08DFE810F00B0086029C050A00D6
:102EE0002F006F008000EE0C3E0D7C0D35E7DAF808
:102EF0002868DAF82C38DAF84028DAF844C8DAF822
:102F00007408DAF878580BE74FF40070DAF83018E4
:102F1000DAF83428DAF84838DAF84C68AAF82909D7
:102F20000020CAF8F008CAF82039CAF82469CAF89B
:102F3000E018CAF8E4280AF508610DF668000F9158
:102F400002F0E6FEDDF86828082A04D104200FE725
:102F5000DAF8280B25E3DDF86C18072ADDF870088D
:102F600041F01D840722CAF88418C907CAF88028CE
:102F7000CAF888085BD0DAF830180025DAF8342867
:102F80004FF0FF348AF8D458DAF84838551ADAF88E
:102F90004C6888BF04EB1534002818BF441ECAF8DB
:102FA0008C08CAF89038CAF89468CAF89818CAF811
:102FB0009C28CAF8A0480AF509610DF6680002F0DD
:102FC000FFFDDDF86808082826D10520D0E6DAF8EC
:102FD000000BDAF8041BEFE20AF508600F900AF61E
:102FE000C4000E909AF8C408DFE810F0090002024D
:102FF0001205A0006F06C106F1068900B500DAF8D7
:103000008038DAF884E8DAF88868DAF88C58DAF880
:103010009008DAF894282BE007287FF435AF9DF864
:103020006C0800280CBFDAF88C280022CAE60AF5E2
:103030000366DAF83C58DAF848380221DAF84CE846
:10304000002445CECAF8501801218AF87C180AF6E7
:10305000C4018AF8C448CAF88038CAF884E8CAF8B3
:103060008868CAF88C58CAF89008CAF894280E9153
:1030700000240AF608118AF80849CAF8C838CAF8BC
:10308000CCE8CAF8D008CAF8D428CAF89838CAF8E0
:103090009C08CAF8A028CAF8A4E8CAF8A868CAF820
:1030A000AC580D914FF0010C40F6FF760025141A34
:1030B0004FF000098AF800C9CAF8FC68111A88BFE5
:1030C0004FEA1139CAF8D838CAF8DC08CAF8E0283B
:1030D000CAF8E4E8CAF8E858CAF8EC98CAF8F05810
:1030E000CAF8F40838BF2C46200B210518BF0CEB9A
:1030F0001430DDF84C90CAF8F80800F046BD9AF894
:10310000F0080AF50F66DFE810F005007901830486
:10311000AC06EA06DAF8C808DAF8CC18DAF8D028EB
:10312000DAF8D438DAF8D85800F084BE0AF6081075
:103130000D909AF80809DFE810F0050067016B04AC
:103140005D058205DAF8C838DAF8CCE8DAF8D00894
:10315000DAF8D428A6E70AF6C8019AF84A090491D1
:103160000AF64A110791DFE810F0070055015304F1
:10317000510A14003A00EC0A0AF50D6EDAF8CC0890
:103180000D909EE80B40DAF8E058DAF8E49800F089
:10319000E9BE0AF64C119AF8B40909910AF6B4117D
:1031A0000D91DFE810F00C00490135046800CB00F8
:1031B00068079A07DB07710CB40DD10C2B0DDAF8F8
:1031C0004CC9DAF85039DAF85469DAF85859DAF8AB
:1031D0005C29DAF86009DAF8641900F00FBF9AF890
:1031E000480A0AF648210591D8B1032840F0188111
:1031F0000AF6B8100D909AF8B809DFE810F006004A
:10320000170109042C0004095409DAF87459DAF892
:103210007C29DAF88009DAF88419DAF8906901F083
:1032200015B8DAF85C49DAF86059DAF864C9DAF8FE
:103230006869DAF86C29DAF8703901F0B0B94AF641
:10324000C060C0F204003FF05DFE4AF6D060C0F2FC
:1032500004003FF057FE9AF8440A0AF64424D8B115
:103260000328DDF84C9001F0908046F62430C0F23F
:10327000040040F09DFA0AF6B8110DF6680002F05D
:10328000E0FDDDF86828022A2BD10DF10C0E032099
:103290000EF58251042261E0DAF8BC29DAF8C0594F
:1032A000DAF8C469DDF84C9000F0E3BF0121BFF308
:1032B0002F8F0020CDF86C1844F65471CDF87808A3
:1032C000C0F20401CDF874080420CDF8681846F265
:1032D0002461CDF870080DF66800C0F2040140F0DA
:1032E00014FBDDF86CE8D207DDF87018BDF874083F
:1032F00006D0BDF876680D0C4FEA112CC9B241E03A
:103300005FEACE7242D0DAF868C90022DAF878397A
:10331000DAF87C69DAF88459DAF888498AF8092AEF
:10332000AAF8BC09CAF8B819CAF804CACAF8D03948
:10333000CAF8D469CAF8D859CAF8DC490AF6B811EB
:103340000DF6680002F08DFEDDF8681804290CD136
:103350000DF10C0E04220EF58251042001ABDDF8B4
:103360004C9003F5825401F03BBADDF87048032914
:10337000DDF8740808D1DDF86CE8060C250C4FEA7E
:10338000142CE1B2032311E0022903D2DDF84C90A2
:1033900000F05ABEBDF878188646DAF88429260C63
:1033A000089200234FEA112CC9B22046DDF84C9058
:1033B00001F005BA46F2EC70C0F2040040F0F8F9F2
:1033C00046F6FC00C0F2040040F0F2F946F26460F8
:1033D000C0F2040040F0ECF946F6F420C0F204001C
:1033E00040F0E6F946F6BC10C0F2040040F0E0F907
:1033F00046F69C10C0F2040040F0DAF946F67C1064
:10340000C0F2040040F0D4F946F68C10C0F204007B
:1034100040F0CEF946F6AC10C0F2040040F0C8F916
:1034200046F6A430C0F2040040F0C2F946F6B430CB
:10343000C0F2040040F0BCF946F6E420C0F20400FB
:1034400040F0B6F98AF8FD070DF5A75D07B0BDE8B5
:10345000000FF0BD012088F800000020DAF8EC47EA
:103460006FF000418AF8FC07D4F83802884258D23D
:1034700094F8800400285AD046F618001CA9C0F21F
:10348000040000251F900C201E9046F60C00C0F290
:103490000400CAF8F0471D900DF668001C951FF057
:1034A000D2FFBDF8680802285AD00DF668015046D0
:1034B0004FF4FA620AF2FC780AF5FE6641F041FA2E
:1034C00021F085FA129ACAF800080AF5FD60CAF8D8
:1034D000680B0AF6483010900AF50160C2E9005501
:1034E000C2E9D2558AF804188AF8485BCAF8304B0A
:1034F000CAF8344BCAF8384B8AF8805BCAF8586B64
:10350000CAF85CABCAF8608BCAF864BB14900AF5C1
:10351000336207CACAF83C0BCAF8401BCAF8442BEE
:1035200035E04AF67070C0F204003FF009FD012159
:103530000020CDF86C184AF26811C0F20401CDF8F1
:103540007808CDF874080420CDF868184AF2701194
:10355000CDF870080DF66800C0F2040140F0D5F90E
:10356000DDF8701846F64443DDF86C081CAAC0F27A
:103570000403CDE91C0146F63800C0F204001C210A
:10358000009046F61A00C0F204003FF0AAFE0020A8
:103590000AF62C318AF82C0B0AF63C30CAF8280BB4
:1035A00015910021CAF8000B8AF8201B0AF62D316C
:1035B000CAF8041B0AF5326B4FF0000C031D149A75
:1035C0000AF60C36CAF814380AF61813CAF838097D
:1035D0000AF53165CAF83C190AF608310AF678246A
:1035E00008308AF822C88AF843CACAF8082BCAF8F1
:1035F0000C3BCAF8104BCAF8145BCAF8186BCAF82F
:103600001C1B8AF8A9CACAF8A40A0DF668050AF6AE
:1036100014314A4628460CF04FFD9DF86888B8F1F1
:10362000210F1AD10DF668050AF618314A462846C8
:103630000CF0A8FE9DF86888B8F1210F0DD10DF6A9
:1036400068050AF61C314A4628460AF0FFFD9DF837
:103650006888B8F1210F00F0E2800DF1080E691CB6
:103660000EF58450132241F060F90DF1080E1CADE7
:103670000EF5845128465CC95CC00A88897881703F
:103680009AF8A91A02800AF6782005293DD0062961
:1036900040D1DAF8B41AC1B3DAF8B09AD9F80020F8
:1036A000002A40F01481D9E901634FF0FF32C9F8D4
:1036B000002000222BB34FF40E72BAF8B84A5343DD
:1036C00006F5047204E002F50E72B3F50E7317D01E
:1036D000967F042EF7D11688002E00F0CA805688F7
:1036E000B442F0D15368044619445160A2F5F87110
:1036F00008463CF076FBD9F8001020464A1C00E052
:103700000022C9F80020DDF84C9026F0E3F90020F3
:103710008AF8A80A9AF822080E2808D19AF84A08C6
:10372000032812BF04289AF87708042843D02946B2
:103730000DF1140E5CC90EF58350B8F1200F5CC07A
:103740004FF001040A8889780280817015988BF8FF
:10375000004004703FF41BAF0DF1140E681C0EF511
:10376000835113228DF8708041F0DFF800200DF1B5
:10377000080ECDF8780846F6D400C0F20400CDF863
:103780006C48CDF868080EF584500DF1040ECDF8A4
:10379000700846F6E1600EF58251C0F20000CDF8E7
:1037A0007448C1E9115046F6DC010DF66800C0F21C
:1037B000040140F0AAF8DAF880080028B7D0DAF857
:1037C0007C482168002940F08280D4E901624FF0F2
:1037D000FF312160002102B34FF40E71BAF8843832
:1037E0004A4306F5047104E001F50E71B2F50E725C
:1037F00012D08E7F042EF7D10E88002E39D04E883D
:10380000B342F1D14A6810444860A1F5F8703CF029
:10381000E8FA2068411C00E00021216087E7159943
:1038200003208BF800000022DDF848B008701099E2
:103830000870DBE9D201014341F0F6879AF8800B6A
:10384000CDE90C12002802F09F80032841F0388651
:103850009AF8E30B0AF6E332DFE810F00500C20045
:10386000DA0023001100DAF8BC6BDAF8C00B01F0C3
:10387000CBBA49F67010C0F204003FF028FD9AF868
:10388000240C0AF624491492002801F09186139A18
:10389000032801F0A58646F23460C0F204003FF030
:1038A00087FF0BF578700E909AF8440C0AF64443A3
:1038B000CDE91423DFE800F004A0AC3A2B1E11453B
:1038C000DAF8FC6BDAF8000C0E9901F00EBB49F641
:1038D0006010C0F204003FF015FB9AF8B00C0AF536
:1038E0004B65DFE800F00383954C4100DAF8689CF3
:1038F00001F0CFBC9AF8B00C0AF54B68DFE800F095
:10390000037688594300DAF8685C01F056BC9AF8EF
:103910005F0C0AF648490AF65F45DFE800F00367E6
:10392000794E3F00DAF84C0C01F0C2BB9AF8500C0B
:103930000AF54565A0B1032864D1DAF84C4C01F0D2
:10394000EFBA9AF8550C0AF65545DFE800F0034F38
:1039500061453A009AF8564CDAF8500C01F015BD62
:10396000DAF8484C01F0DABA9AF8BC0CC00701F05A
:10397000B38447F2D860C0F204003FF019FFDAF8D0
:10398000B40C01F097BC9AF8BC0CC00701F0368467
:1039900047F2A860C0F204003FF00AFF9AF8780CE2
:1039A000C00701F0A78347F2C860C0F204003FF0EF
:1039B000FFFEDAF8B40C01F00FBCDAF8700C01F07D
:1039C00087BB9AF8600CC00701F0F98447F2B86031
:1039D000C0F204003FF0ECFEDAF8581C01F0DDBC48
:1039E00046F2DC70C0F204003FF0E2FE46F2746082
:1039F000C0F204003FF0DCFE46F24460C0F2040076
:103A00003FF0D6FE46F28460C0F204003FF0D0FEE4
:103A1000FEDE52F8186B00238AF86438CAF844288E
:103A2000CAF84868CAF84C08CAF850180AF644019F
:103A30000DF6680002F0B6FBDDF86808022846D0F3
:103A4000C00740F09E80DDF86C08002801F0A581D9
:103A50001C901CA8DDF87018DDF87428BDF87A38C1
:103A6000BDF878481D91ADF87E30ADF87C401E92CF
:103A700022F09CFC02460B460DF6680011461A46E1
:103A800022F049FBDDF8680801287AD0DDF87408D7
:103A9000DAF83C18814258D3221A0E1AB242CDF8F5
:103AA00054B049D8DAF838180DF66809DDF86CB862
:103AB00001444846DDF8706822F05CFB9DF8780808
:103AC000032807D1DDF84C90DDF854B059E003200D
:103AD00001F090B9149CDDF868188DF8610804F1C4
:103AE000080CDDF86C28DAF8EC07A6801CAEDDF8CF
:103AF0007038DDF874588CE82E00012100228AF815
:103B000024188AF840188DF8601800F1F801CDF8F3
:103B100034283046CDF830280DF50362C4F800B0E3
:103B20001EF0E7FA9DF870001F2815D1DDF84C90C3
:103B30000120DDF854B091E446F614331146C0F28A
:103B40000403002032463FF035FB46F604330A46B4
:103B5000C0F204033FF02EFB96E83E0048463EC00C
:103B600046F2FC70C0F2040046F69043009046F620
:103B70005440C0F20403C0F204002B214A463FF037
:103B8000B0FB01202870FFF765BC002800F083809F
:103B9000DAF8F4380138DAF8EC18DAF8F0283344B7
:103BA0000133002902F10105CAF8F058CAF8F438C7
:103BB000CAF8F80800F01C82DAF8E84800238AF80E
:103BC00050392244DAF8D808B2FBF1F3DAF8DCC84D
:103BD00003FB1121DAF8E068DAF8E458CAF80C09B6
:103BE000CAF81059CAF80419CAF814C9CAF81869E9
:103BF000CAF81C190AF60C110DF6680001F0E0FF76
:103C0000DDF86808022803D008282ED1032069E0D7
:103C1000DAF8D8080025DAF8DC18DAF8E028DAF85B
:103C2000E438DAF804698AF87C59CAF80C09CAF849
:103C30001039CAF81419CAF81829CAF81C69D9F831
:103C400000200AF60C110DF6680002F099FBDDF871
:103C50006848082C45D09AF87C09032804BF9AF8D4
:103C60007809032806D0072C45D1DAF8F808DAF8E5
:103C7000FC688AE79AF87409032804BF9AF8600977
:103C80000428F0D1DAF85C09007837F0D9FB00207D
:103C90008AF86209E7E70120DAF898188AF8080933
:103CA0004FF48070DAF89C28DAF8A038DAF8A468C3
:103CB000AAF871090020CAF83809CAF86819CAF8C0
:103CC0006C69CAF82829CAF82C390AF6C8010DF619
:103CD000680002F01DF8DDF86828082A10D10420D9
:103CE00003E004200D990870032015990E9A1070B6
:103CF0000620FFF73EB80D990120087000F091BE34
:103D0000DDF86C18072ADDF870083CD10722CAF8E4
:103D1000B418C907CAF8B028CAF8B80800F0AD85C9
:103D2000DAF89C18DAF8A028CAF8BC088A4241F2EE
:103D30006580531A0026B6EB133F01F05F801B0B22
:103D400001308AF80C69B0FBF3F606FB1300DAF8D1
:103D50009858DAF8A448CAF8C858CAF8CC48CAF83B
:103D6000C008CAF8D018CAF8D428CAF8D8080AF681
:103D7000C8010DF6680001F023FFDDF86808082887
:103D800009D10520B1E7CAF8B028CAF8B418CAF8B2
:103D9000B80800F046BE072840F043869DF86C083E
:103DA000022800F06A85DAF898080025DAF89C18ED
:103DB000DAF8A438CAF8C8080AF50D60DAF8A028BD
:103DC000DAF8BC688AF83859CAF8CC3846C0D9F84D
:103DD00000200AF6C8010DF6680002F0D1FADDF8FD
:103DE0006848082C01D106207FE79AF83809032893
:103DF00004BF9AF83409032800F0D780072C40F05C
:103E00001086DAF898080026DAF89C28DAF8A03844
:103E1000DAF8A418DAF8BC588AF8F0680AF50F66E0
:103E2000CAF8C808CAF8CC18CAF8D028CAF8D438D2
:103E3000CAF8D8580024CAF8F4088AF83849CAF8E9
:103E4000F818CAF8FC28CAF80039CAF80459CAF8A0
:103E5000DC08CAF8E028CAF8E438CAF8E818CAF852
:103E6000EC580AF6F4050DF66800294601F0A8FEA4
:103E7000DDF86808082801D1032039E0072840F060
:103E8000B3809DF86C082870022842D1DAF8EC382B
:103E90000020DAF8E0280125DAF8DC18CAF854091D
:103EA00002EB0332CAF85809CAF85C09CAF860097B
:103EB000CAF86409CAF86809CAF86C09CAF870092E
:103EC0008AF8500904208AF8F5580AF65415CAF8F9
:103ED000F818CAF8FC58CAF80009CAF80429D9F831
:103EE00000100AF6F80003F025F8042803D1042096
:103EF00030700720F9E69AF85019032907D19AF88B
:103F00004C19032904BF9AF8381904295FD00328F3
:103F10006AD10122DAF8BC98DAF8C0580026DAF83B
:103F20009C38DAF8A0E8DAF8A808DAF8AC188AF8C9
:103F3000F0280AF50D62DAF8A448DAF898C882E8A1
:103F40000B400AF6C80204920AF64A128AF84A6935
:103F5000CAF8C8C80D94CAF8CC48CAF8E058CAF8DC
:103F6000E49807921A1DDAF8C84802EB053C02EB08
:103F70000932CAF8042903EB0536DDF84C9006F641
:103F8000FC76CAF8EC380D9BCAF808C9CAF80C6967
:103F9000CAF8E848CAF8F0E8CAF8F438CAF8F808E5
:103FA000CAF8FC18CAF8005923E39AF83009032824
:103FB00004BF9AF81C0904287FF420AFDAF8180926
:103FC000007837F03DFA00208AF81E0916E7DAF883
:103FD000341904460978084637F032FA20460021A1
:103FE0008AF83A19032894D00120307000F019BDE6
:103FF00046F60440C0F204003FF0B4FB0DF1040E9D
:10400000CAF87439CAF8802902460EF582536FF354
:104010001F32002ACAF868C9CAF86C09CAF87019B0
:10402000CAF87869CAF87C59DA6040F0CE800A464E
:104030006FF31F321A61002A40F0DC80081A002159
:10404000B1EB503F00F0EB804FF48070DAF8681964
:10405000DAF86C29DAF87039DAF87469AAF8610AC2
:104060000020CAF8280ACAF8581ACAF85C6ACAF8BE
:10407000182ACAF81C3A0AF6B8110DF6680001F0C1
:1040800047FEDDF86828082A01D10520D2E0DDF8D6
:104090006C18072ADDF87008DDE90A6E7BD100296B
:1040A000CAF88C19CAF8900940F087804FF4007064
:1040B000DAF86819DAF86C29DAF87039DAF874691C
:1040C000AAF8610A0020CAF8280ACAF8581ACAF8D9
:1040D0005C6ACAF8182ACAF81C3A0AF6B8110DF632
:1040E000680001F015FEDDF86828DDE90A6E082A8F
:1040F00001D106205BE3DDF86C18072ADDF87008B3
:1041000043D1CAF8BC19C9074FF007024FF00001AC
:104110004FF00303CAF8B829CAF8C00942D0DAF848
:104120006C394FF0FF34DAF870698AF80C1ADAF853
:104130006829F11ADAF8745988BF04EB11340028A1
:1041400018BF441ECAF8C449CAF8C829CAF8CC59CD
:10415000CAF8D039CAF8D469CAF8D8490AF6C811D9
:104160000DF6680001F02CFDDDF86828DDE90A6E27
:10417000082A01D107201AE39DF86C18072A40F09D
:10418000DC85022391B1002119E3CAF8B829CAF8E5
:10419000BC19CAF8C009060C0D0C4FEA112CC9B2A3
:1041A00000F04FBC4FF0020E00F0C6BDDAF8C409B3
:1041B0000121CAF88C19CAF8900900214C22CDE9D6
:1041C0000A6ECAF8940900F03FBC002046F6D012EF
:1041D000CDF8680846F660200DF1100EC0F204001C
:1041E000C0F2040200900EF582510DF66803002023
:1041F0003AF062FF002046F6D012CDF8680846F685
:104200007020C0F20400C0F2040200900DF1140E00
:104210000EF582510DF6680300203AF04DFF46F688
:10422000802046F6D422C0F20400C0F204025121DC
:104230003FF058FB0DF10C0E04220EF582510DF1EA
:10424000040E0EF58254DDE90A6EC9E20023CAF8B5
:10425000BC298AF8443A0AF64424CAF8C059CAF874
:10426000C469CAF89459CAF89809CAF89C19CAF8D6
:10427000A0694FF0FF30CAF8C809CAF8CC09CAF8DB
:10428000D009CAF8D409CAF8D809CAF8DC09CAF8AA
:10429000E009CAF8E4091068CAF8C8090020918842
:1042A0000AF6C8128AF8400A0820CAF8F0094FF442
:1042B0007F4060EA0100CAF8EC29CAF8F469CE0729
:1042C00082B2AAF8CC194FEA5203CAF8E85941F66B
:1042D0002E2008BF80EA52039AB2DB074FEA52024F
:1042E00089B218BF424093B25B08D20718BF43405F
:1042F0009AB25208DB0718BF424093B25B08D2075C
:1043000018BF43409AB25208DB0718BF424093B22D
:104310005B08D20718BF43409AB25208DB0718BFA8
:10432000424082EA11218AB2C9074FEA520218BFFD
:10433000424091B24908D20718BF41408AB25208A0
:10434000C90718BF424091B24908D20718BF41407F
:104350008AB25208C90718BF424091B24908D20731
:1043600018BF41408AB25208C90718BF424091B2F3
:104370004908D20718BF4140C84309046FF0EE0155
:1043800008BF01F1ED00AAF8CE09D9F800100AF62D
:10439000E81002F0CFFD042800F0E6809AF8401AF9
:1043A000032908D19AF83C1A032904BF9AF8281A5D
:1043B000042900F0A18001210328217040F0CB8066
:1043C000DAF89C290026DAF89819DAF8A039DAF830
:1043D00094098AF8146A02F0030622F003020833F3
:1043E000CAF8BC098818CAF8C019CAF8C429CAF89A
:1043F000C839CAF8A419CAF8A829CAF8AC09CAF871
:10440000B069CAF8B439D9F800100AF6BC1002F045
:1044100091FD042800F0A6809AF8141A032907D108
:104420009AF8101A032904BF9AF8FC19042976D0C7
:10443000032840F09080DAF8B059002D49D00020D0
:10444000212DCAF8180ACAF81C0ACAF8200ACAF8A4
:10445000240ACAF8280ACAF82C0ACAF8300ACAF884
:10446000340A80F08C800AF61826DAF8AC192A464D
:10447000304640F05AFAE81C00F07C01212980F017
:104480008680DAF8A8290025DAF8B439DAF8940930
:104490001A448AF8145ACAF8BC09CAF8C069CAF89A
:1044A000C419CAF8C829D9F800100AF6BC1002F0DD
:1044B00041FD04285BD09AF8141A032907D19AF811
:1044C000101A032904BF9AF8FC19042936D00328CE
:1044D00041D1BAF8580901218AF8481A8AF8B8195E
:1044E00020F00302DAF80419830718BF101D0844EE
:1044F0000830CAF8040976E0DAF8241A254604469A
:104500000978084636F09CFF20462C4600218AF8A0
:104510002A1A0121032821703FF452AF1BE0DAF878
:10452000F81904460978084636F08AFF204600212B
:104530008AF8FE1903283FF47EAF0CE0DAF8F81988
:1045400004460978084636F07BFF204600218AF8A9
:10455000FE190328BDD005990120002508700D998A
:10456000087081E1042003E00320207000E00520B2
:10457000059A032111700D99087005205AE246F63C
:10458000C4332946C0F2040320223EF013FE46F64F
:10459000D4330020C0F2040320223EF00BFE20465C
:1045A0000D96CDF818C01E46099221F0FFFE069B1D
:1045B0000022CAF878390D9BCAF88839099B8AF815
:1045C000B82904F10802CAF88C390AF6B813CAF8F7
:1045D0007459CAF87C29CAF88009CAF88419CAF83B
:1045E00090690D9332E6DAF8E848DAF8F808DAF874
:1045F000FC180022CAF850498AF86C290AF60812F9
:10460000CAF84C29CAF85409CAF858190DF66805B1
:104610000AF64C110991284601F0C4FDDDF868C87E
:10462000BCF1020F68D005F1040E02A800F5845118
:104630009EE875000B4675C30AF614105FEACC724B
:104640005CD191E87C0000217CC0DAF81409CAF83A
:10465000101900285FD00DF1040ECAF828090EF5D4
:1046600082530AF628104833DAF82469CAF8386900
:104670000ECBCAF82C19CAF83029CAF8343921F0FF
:1046800095FE02460B460DF6680011461A4621F0CB
:1046900042FDDDF86808002874D1DDF87028DAF8EA
:1046A0002869DAF82C59DDF86C48DAF8E8C8DAF845
:1046B000EC08DAF8F018DAF8F438AAF848290022F9
:1046C0008AF8B4290AF64412CAF844490AF6B4141E
:1046D000CAF83C69CAF84059CAF84CC9CAF85039F6
:1046E000CAF85469CAF85859CAF85C29CAF8600966
:1046F000CAF864190D9481E403209BE10DF1040EC6
:104700000EF5825344330ECB0EC00120DAF814E9C3
:10471000CAF8100975E1DAF8E808DAF8EC28DAF8EE
:10472000F038DAF8F468DAF800598AF8BC19CAF8EF
:104730004C09CAF85069CAF85429CAF85839CAF855
:104740005C59D9F800200AF64C110DF6680001F00A
:1047500017FEDDF86858082D01D106206AE19AF8A5
:10476000BC09032804BF9AF8B80903287CD19AF839
:10477000B409032804BF9AF8A009042804D0DDF87E
:104780004C9071E005256FE0DAF89C09007836F06E
:1047900057FE0020DDF84C908AF8A20964E0CAF8C0
:1047A0008028CAF88418CAF88808FEF76DBB03A9E8
:1047B00001AB042201F5825103F5825410E0C0EAF6
:1047C00006400C905FFA8CF001AC41EA002002A98F
:1047D00004F5825440EA054601F582510120A360A8
:1047E0000D9B18700A60A568022D3DD0032D00F0C6
:1047F0000881042D00F01D810C9844F808EC44F861
:10480000046C2060099CCDF82CE00DF11C0EDAF848
:104810003C290EF58151DAF8403920460A9621F0FC
:10482000ABFDDAF83809089981427FF4DCAEDAF89A
:10483000E8580020DAF8EC68DAF8F028DAF8F4C87A
:10484000DAF804398AF8480A0AF64820CAF85C49B6
:10485000CAF86059CAF864C9CAF86869CAF86C2904
:10486000CAF8703905909AE60799012008700498F3
:1048700001F0BEFE072D40F0D48001208AF8C40864
:104880000F9801F04DFE4FF48070DAF83018DAF826
:104890003428DAF84838DAF84C68AAF829090020F0
:1048A000CAF8F008CAF82039CAF82469CAF8E0182A
:1048B000CAF8E4280AF508610DF6680001F028FA44
:1048C000DDF86828082A02D10720FEF751BADDF882
:1048D0006C18072ADDF870081DD10722CAF86C1879
:1048E000C907CAF86828CAF870081CD0DAF8301866
:1048F000DAF834288A4240F28182511A0022B2EB5F
:10490000113F00F07B82090B0130B0FBF1F202FB9A
:104910001102FEF75CBACAF86828CAF86C18CAF81F
:104920007008FEF7B1BA4FF40070DAF83018DAF810
:104930003428DAF84838DAF84C68AAF8290900204F
:10494000CAF8F008CAF82039CAF82469CAF8E01889
:10495000CAF8E4280AF508610DF6680001F0D8F9F4
:10496000DDF86828082A02D10820FEF701BADDF830
:104970006C18072ADDF870087FF411AF0722CAF817
:104980008418C907CAF88028CAF888083EF47CAAA7
:10499000DAF830180025DAF834284FF0FF348AF8B6
:1049A000D458DAF84838551ADAF84C6888BF04EB5E
:1049B0001534002818BF441ECAF88C08CAF890386D
:1049C000CAF89468CAF89818CAF89C28CAF8A04887
:1049D0000AF509610DF6680001F0F2F8DDF86808E3
:1049E000082802D10920FEF7C3B907287EF44CAA93
:1049F0009DF86C0800280CBFDAF88C280022FEF71E
:104A0000E6B907990120BEF1080F087002D108200D
:104A1000FFF76BB97546049801F0EAFD072D3FF4E6
:104A20002CAF0E99012008700F9801F079FDFEF768
:104A30002BBA0420079B15990E9A18700820FFF7CF
:104A400056B90323964621E1099B9950DAF86C196F
:104A500001EB003000F6FC710430CAF8A409CAF872
:104A6000A819DAF868090023DAF87819DAF87C2945
:104A70008AF8D8390AF6A413CAF8B839CAF8BC09B2
:104A8000CAF8C019CAF8C4290AF6B8110DF66800A8
:104A900001F088FBDDF86838022B02D10820FFF70F
:104AA000C9BBDDF86C28DB07DDF87018DDF8740889
:104AB00004D00D0C4FEA112C964628E052B30DF1AC
:104AC000040EDDF878380EF582560DF1180EDDF87B
:104AD0007C48C6E907030EF58250C6E9052121F09E
:104AE00065FC02460B460DF6680011461A4621F099
:104AF00012FBDDF86808002800F0D080DDF86C18A3
:104B00000025DDF870084FF0050E4FF0000C060C84
:104B1000C9B2BAE0DAF89809002800F0D68000207F
:104B2000DAF89C29DAF86819DAF8A0398AF80D0A57
:104B30004FF0FF30CAF8AC29CAF8B039CAF8081AE1
:104B4000CAF8E029CAF8E4090AF6B8150DF66800B3
:104B5000294601F076F9DDF86808DDE90A6E0228D9
:104B600001D10A2023E60DF1040EDDF86C180EF5D4
:104B70008256DDF87028DDF8743806F1240CC00781
:104B80008CE80E00CAF81C1ACAF8202ACAF8243A7F
:104B900007D00120DAF81CEACAF8180AD820D42174
:104BA0006BE0DAF81C1A0020CAF8180AC9075ED0B0
:104BB000BAF8244A4FF0070CDAF868294FF0FF31B1
:104BC000DAF87839DAF87C69DAF8AC598AF8150A33
:104BD000DAF8200AAAF8C049CAF8B8C9CAF8BC0964
:104BE000CAF8102ACAF8DC39CAF8E069CAF8E459E8
:104BF000CAF8E819AAF8C849CAF8C4090AF6C411DB
:104C00000DF6680001F02DFADDF86818DDE90A6E8E
:104C1000042901D10B20CAE5DDF86CE80329DDF891
:104C20007028DDF874082BD0CDE91E200DF6680041
:104C3000CDE91C1E1CA9DDF8783820931AF0ABFCD6
:104C4000DDF86CE8DDF87048BDF87408DDF8681828
:104C5000E9B1DAF8AC194FEA102C0891C1B2DAF8D0
:104C6000B0294FEA1E4670460123A646A7E54FF03D
:104C7000020E74207021C5F800E0099A10585258AD
:104C8000060C150CD1B24FEA122C032397E5BDF8A0
:104C90007668250C4FEA142CE1B2F6E7DAF88029A1
:104CA000DDF86C08BDF870189388126859405040C0
:104CB00008437FF4D6AEDDF874080121CAF89819CC
:104CC000CAF89C49CAF8A009CBE6DAF86C190025A5
:104CD000DAF870294FF0FF34DAF894698AF8005A4C
:104CE000551ADAF86809DAF8743988BF04EB153414
:104CF000002E18BF741ECAF8B849CAF8BC09CAF811
:104D0000C039CAF8C419CAF8C829CAF8CC490AF681
:104D1000BC110DF6680000F053FFDDF86828DDE9EE
:104D20000A6E082A01D1092041E59DF86C18072A6E
:104D300003D151B10021022341E5DDF870089DF84F
:104D40006DC8BDF86E58060C7BE6DAF8B819482233
:104D5000084679E60AF644010DF6680000F030FFD7
:104D6000DDF86808082844D0072816D19DF86C089B
:104D7000012812D8DAF834084269816801EB02315F
:104D800001F6FC720431C0E90612DAF83428DAF8C8
:104D90003808DAF83C18FEF73CBEDAF83408D0E9F7
:104DA00002128A422AD9511A0022B2EB113F25D0B1
:104DB0004269090B0132B2FBF1F303FB112141619E
:104DC000DAF83418D1E9042090423EF4DAAED1E9A1
:104DD00000360022D1E902418AF88828CAF844380E
:104DE000CAF84868CAF84C48CAF85018CAF85408B3
:104DF000B0E7042028700420FDF7BDBF4AF2800010
:104E0000C0F204003EF0AEFC0DF1080ECAF8B80B7B
:104E10000EF58450CDF878084FF480600DF5805E73
:104E2000ADF868084FF611700AF6C435AEF8880080
:104E30001CA80DF6680100244FF0010914924FF0F0
:104E40001F0B02222B46CAF8DC4BCAF8C44BCAF827
:104E5000C84BCAF8CC4BCAF8D04BCAF8D44BCAF8E6
:104E6000D84BCAF8DF4BCDF87C988DF87498CDF804
:104E700000B022F0B9F99DF87000012805D19DF825
:104E80007100DDE912B9061DD4E2129941F27B40AE
:104E9000CAF8F0BBCAF8F49BC1E9E4048B46C1E947
:104EA000E60408208AF8B00B40F20020C0F20200AD
:104EB000C1E9E044CAF8AC0B01F560700AF6444160
:104EC000DDF84C9015910BF578718AF8A84B8AF8AB
:104ED000AA4B8AF8444CCAF8EC5BCAF8F84BCAF8FB
:104EE000FC6BCAF8000C8AF8E84BCAF8046C0AF6A6
:104EF0000C4CCAF8080C0E9191E83D0000218CE89A
:104F00003D000AF5456530688AF8501C00F5EC64F0
:104F1000CAF8200CCAF8240CCAF8484CCAF84C4C01
:104F20002068002840F06E854FF0FF30D9F800105F
:104F30002060201D3AF063FF207D042840F0658446
:104F400020684FF0020984F814900121013020609C
:104F5000DAF8200C8AF8501C00F5F56023F0ACFE5E
:104F60000AF60C4C0DF668019CE87C0008467CC0F3
:104F70000BF58465284622F0B5F89AF8400C0E2609
:104F8000C10600D4D3E0D5E900244FF0000810F0AA
:104F9000020F4FF000010DF1700CCDF86C48CDF808
:104FA00068280DF5805EADF87480CDF8708008BF7C
:104FB0004FF0030908BF0421C00708BF49466046F7
:104FC000119B12F0010218BF18468388AEF88C308E
:104FD0000DF1040E0EF582530068586443F6095033
:104FE000DAF8083CD3E9046518BF220EA6FB00E6F8
:104FF00005FB0069BEF1624479F1040480F0538539
:10500000D3E90646A4FB005406FB0048B5F1624014
:1050100078F1040080F04A85DAF8200C0DF5805410
:1050200093F827C0B4F88C6093F822400F9493F85B
:105030002340C379D0F800B08AF8641C0021109393
:1050400001AB8AF85F1C4FEA5E21AAF86B6C03F58E
:10505000825641F2597341EAC951CDF2B7138AF829
:10506000662CA1FB0312766C690A41EAC851CAF8A2
:10507000676C0AF64849A1FB03138AF86ECC0F99B6
:10508000CAF84C0C002908BF07241BF001018AF85C
:105090006D4CDDF848B00AF65F45109E18BF3146EA
:1050A0008AF8651C590AAAF8621C510AAAF8601C01
:1050B0000AF54663CAF8480C0830DAF86B6C0ECB78
:1050C0000AF5456CCAF8700C8CE80E00CAF85B6CE7
:1050D000139909680079002800F07A8300200AF506
:1050E00045618AF8780CDAF8480CCAF8741C20304C
:1050F000CAF8700CDAF8700C0021DAF8746C2AF037
:1051000084FC8046000605D001208AF85F0C8AF8EE
:10511000780C0BE030462CF03FF880460120B8F1C7
:10512000000F8AF8780C8AF85F0C03D00026DDF8AF
:105130004C9063E1DAF8348CB8F1000F76D04FF080
:10514000000B1F20C9F81BB0B8F11F0FC9E900BB45
:10515000C9E902BBC9E904BBC9F818B0DAF8301CC8
:1051600028BF8046484642463FF0DFFB0DF6680404
:10517000DAF8200C1090494620461F223FF0DBFB56
:1051800020461CA958C80A4658C278C878C2038865
:10519000807890700AF66D4013801F22109D8AF867
:1051A0006C8CCAF8685C3FF0C0FB8AF8B0BC0AF5AA
:1051B0004B68DDF848B0DDF84C900AF66C40CAF850
:1051C0008C5C0AF549615CC85CC190E85C0005F143
:1051D00008005CC1CAF8B40CD9F8001000790028A6
:1051E00000F00A8300200AF549618AF8BC0CDAF85D
:1051F0008C0CCAF8B81C2030CAF8B40CDAF8B40C1D
:105200000021DAF8B86C2AF000FC804600066DD167
:1052100030462BF0C3FF80460120B8F1000F8AF81A
:10522000BC0C8AF8B00C03D00026E7E0DDF84C9007
:10523000DAF83C5C002D6DD0DAF8381C0AF64846E6
:1052400000241F20CAF8634C1F2DCAF8484CCAF826
:105250004C4CCAF8504CCAF8544CCAF8584CCAF8CE
:105260005C4CCAF8604C28BF054630462A463FF0E1
:105270005CFB0AF66D40DAF8209C31461F228AF862
:105280006C5CCAF8689C3FF050FB8AF8B04C0AF599
:105290004B650AF66C40CAF88C9C0AF549615CC8FB
:1052A0005CC190E85C0009F108005CC1DDF84C903D
:1052B000CAF8B40CD9F800100079002800F08082F8
:1052C00000200AF549618AF8BC0CDAF88C0CCAF89F
:1052D000B81C2030CAF8B40CDAF8B40C0021DAF8A3
:1052E000B86C2AF092FB8046000606D0012000260A
:1052F0008AF8B00C8AF8BC0C80E030462BF050FFE6
:10530000804601200026B8F1000F8AF8BC0C8AF80C
:10531000B00C73D1DAF8080C43F609530168D0E9F0
:10532000020211F00105A0FB0306294614BF02FB8F
:1053300003612846B0F1005271F14E0280F0DE8325
:10534000400A012240EAC15041F25971CDF2B71131
:105350000124A0FB010100208AF84B0C8AF8480CBC
:10536000DAF8200C490B00F5F560AAF8491C0AF69A
:10537000484123F0E6FC4FF480700AF65545AAF840
:10538000550CDAF8200CCAF8500C00F10801CAF8E4
:10539000581C8AF8544CCAF84C0CD9F8000009790A
:1053A000002900F0218200200AF654418AF8600C9E
:1053B000DAF84C0CCAF85C1C2030CAF8580CDAF841
:1053C000580C0021DAF85C6C2AF01FFB80460006BE
:1053D00006D0012000268AF8550C8AF8600C0DE0F2
:1053E00030462BF0DFFE804601200026B8F1000F8A
:1053F0008AF8600C8AF8550C00F0CE80DAF8244C5C
:10540000D4F86007002840F0FD824FF0FF300025FF
:10541000C4F8600704F26C7084F874573AF0E1FC49
:10542000D4F86007002215990130C4F86007012004
:1054300008700021CBF8700301208AF8E30B100CF0
:10544000202EABF86D238AF8741BCAF8705BAAF89B
:105450006E3B8AF86D8B8AF86C6B8BF86F03CBF818
:1054600074C340F091820AF537600021D0E900E86A
:105470000AF68433D0E9026CDAF85C5BDAF8604B48
:10548000DAF8640BDAF8682B8AF8F81C8AF8041C3E
:10549000DAF8581BCAF8D83BCAF884EBCAF8888BEC
:1054A000CAF88C6BCAF890CBCAF8D01CCAF8D45C86
:1054B000CAF8D84CCAF8DC0CCAF8E02CCAF8DC5B95
:1054C0000AF69830494605F023FAC00740F0888173
:1054D0009AF8040C042804BF0AF62C4001F0EFF9F6
:1054E0009AF8F80C04281FD0032840F01B829AF881
:1054F0005B0D042800F0D680032840F013829AF850
:10550000BC0D0338042800F20D82DAF89C4DD4F863
:105510006007002840F07682002084F874074FF07E
:10552000FF30C4F860073CE19AF8980D052804BFE5
:105530009AF8A40D032800F0BE809AF8BC0E052846
:1055400000F0D780042840F0D8809AF8100F042883
:1055500000F0FB80032804BF9AF8840F032840F072
:10556000CC809AF8800F032804BF9AF87C0F032898
:1055700040F0C3809AF8780F032804BF9AF8640FAC
:10558000042840F0BA80DAF8600F007835F058FF50
:1055900000208AF8660FB0E0DAF8041C0AF6244905
:1055A00009688AF8440C0E98C0E900168AF8246C41
:1055B000DBE9F8124FF480730020AAF8153C0423AD
:1055C000CBE9FA1201F5F562CAF8182C38318AF8DD
:1055D000200CCAF8083CCAF80C0CCAF8101C139A24
:1055E0000AF6F8311CA808F06CF81C98002840F066
:1055F000E280DAF8F04B01258AF8F55B9DF87880B7
:105600001D9ED4F86007002840F0FC81042084F837
:1056100074074FF0FF30C4F8600704F264703AF08A
:10562000E0FBD4F8600700F10100C4F8600789F8D6
:105630000050FEB1DAF8B80B3146424600F12003C3
:105640000DF6680015F03CFA9DF86868DDF84C909E
:105650001F2E14D19DF873282026BDF87138DDF86F
:1056600078C8DDF8740843EA02429DF87018DDF846
:105670006C58DFE600251826DDF84C90DAE69DF838
:105680007328BDF87148DDF878C8DDF8740844EA7D
:1056900002429DF87018DDF86C58BDF86A389DF824
:1056A0006988C7E69AF89C1D03295CD00AF5566004
:1056B00000295AD036E147F214100021C4F200004C
:1056C00001604FF6F461CFF6FF710122425001688C
:1056D00041B90168002904BF0168002902D10168AD
:1056E0000029F4D0002101609AF8BC0E05287FF44F
:1056F00029AF0AF6E46001F0E2F89AF8230D0328D6
:1057000000F0A180042840F0AB809AF87C0D0328BB
:1057100040F099809AF8780D002800F090800328D6
:1057200040F091809AF8761D0AF64850002900F062
:105730008880032940F08780DAF8601D0AF55660FA
:10574000002918BF24F0C6F97DE09AF8850F0528D6
:1057500004D0042800F027810328CED10AF68870EF
:1057600001F008F829E10AF6685004684279D4F893
:10577000601762B1002940F04581042084F8740765
:105780004FF0FF30C4F8600704F264700BE00029AA
:1057900040F038814FF0FF31C4F86017007984F889
:1057A000740704F26C703AF01CFBD4F86007013007
:1057B000C4F86007B6E0032089F8000004202CE05C
:1057C000D1E900108968884703202870062021E06D
:1057D000D1E900108968884703202870042019E067
:1057E000DDE90C1204201DE0D0E90010896888472B
:1057F0000320287007200DE0D1E900108968884750
:10580000032088F80000052004E0206801302060B3
:1058100003202870159908700320149BDDE90C12F1
:10582000187003208AF8800BB1FA81F082F0010130
:105830004009084300F07A810420FDF703BE0AF610
:10584000385024F047F9DAF8084D34F097FE216813
:10585000002940F04D81E16A0139E16234F0B9FE7E
:105860009AF8F10D03281ED0042829D19AF84C0E7D
:10587000032818D19AF8480E88B1032813D19AF852
:10588000461E0AF6186061B103290CD1DAF8301E01
:105890000AF56360002918BF24F01CF903E00AF63A
:1058A000086024F017F9DAF8C84D34F067FE216873
:1058B000002940F01D81616A0139616234F089FE7E
:1058C000DBF8C029D2F8D006002840F0E0809BF831
:1058D000C4094FF0FF33D2F8D816C2F8D03681424F
:1058E00040F21E81D2F8D4364FF40E7110FB013015
:1058F000B0F81002002800F0D080DBF8CC390BF5AE
:105900001C61DBF8C80900261B69C2F8D0669847FD
:105910009BF8C419DBF8C0098DF868180DF668010A
:1059200013F0AAFADAF8842BD2F8D006002840F057
:10593000AE809AF8880B4FF0FF33D2F8D816C2F831
:10594000D036814240F2EC80D2F8D4364FF40E715A
:1059500010FB0130B0F81002002800F09E80DAF849
:10596000903B0AF68431DAF88C0B00261B69C2F8EA
:10597000D06698479AF8881BDAF8840B8DF8681877
:105980000DF6680113F078FADAF8586B0021DAF8AE
:105990005C0B0AF6E3328AF8E31BCAF8BC6BCAF860
:1059A000C00BFFF731BA9AF8CC0F0338052804D89A
:1059B000DFE800F00703034B2E6800208AF8840F0D
:1059C0009BE69BF80808042804BF9BF88C08032872
:1059D000F3D19BF88808032804BF9BF884080328A8
:1059E000EBD19BF88008032804BF9BF86C080428BF
:1059F000E3D1DBF86808007835F022FD00208BF851
:105A00006E08DAE74AF62030C0F204003DF07AFA78
:105A10009AF8F80F0428D0D19BF86408032804BF33
:105A20009BF860080328C8D19BF85C08032804BFD2
:105A30009BF848080428C0D1DBF84408007835F00A
:105A4000FFFC00208BF84A08B7E79BF848080328BA
:105A5000B3D19BF84408032804BF9BF840080328EF
:105A6000ABD19BF83C08032804BF9BF82808042806
:105A7000A3D1DBF82408007835F0E2FC00208BF895
:105A80002A089AE70AF57D6000F00CFE95E749F6D2
:105A90000810C0F204003DF035FA49F64000C0F2AB
:105AA00004003DF014FCCDF8788802E00020CDF829
:105AB00078084AF658110120C0F20401CDF86C08AC
:105AC000CDF86818CDF87408CDF870C84FF2B3104F
:105AD0000DF1180EC0F201004AF660111D900EF58E
:105AE00082501C900DF66800C0F204013DF00DFFDD
:105AF00049F6A010C0F204003DF004FA4AF658112D
:105B00000020CDF878080120C0F20401CDF86C081F
:105B1000CDF874081CA8CDF86818CDF87008D5E742
:105B200049F63002C0F204023DF066FE584600F02D
:105B300025F80AF5356000F000F8D0E9001281F090
:105B40000101114304D100210222C0E90021FEDE3F
:105B500080B56F4686B001210020019146F64411C0
:105B6000C0F204010490009146F64C110390042009
:105B70000290C0F2040168463DF0C7FED0E9001271
:105B800081F00101114301BF00210222C0E900217F
:105B9000704780B56F4686B001210020019146F61E
:105BA0004411C0F204010490009146F64C11039098
:105BB00004200290C0F2040168463DF0A6FED4D451
:105BC000F0B503AF4DF8048D804691F844000C46C3
:105BD000DFE800F003979D2920002569002194E863
:105BE000015022460123C4E90A11C4E90C11C4E999
:105BF0000E11216484F8581042F8241F0EEB053171
:105C0000C4E9050C04F1480CC4E907518CE80D0007
:105C1000616510E094F85C00C0076CD104F14C039E
:105C2000A16D0DCB33E094F85800C00763D104F1A7
:105C30004803616D0DCB34F0DFFA0123032884F8AB
:105C4000583046D12246552512F824CF002652F866
:105C5000041C05EA5C0552F8100CACEB050C33256E
:105C600001F6FF7182F8386005EA9C0E0CF03305EE
:105C7000754402F1280C05EB151505F00F05052DEF
:105C800038BF012682F824608CE80D00516334F09F
:105C9000B3FA0122032884F85C201AD194F8240076
:105CA000552194F8482001EA5001A0EB01004FF083
:105CB000330101EA900100F03300084400EB1010BA
:105CC00000F00F0182B10020042988BF01200722C3
:105CD00000E00022C8E900200120C8F8081084F87C
:105CE00044005DF8048BF0BD022204294FF002004D
:105CF00088BF0722EEE747F23870C0F204003DF09B
:105D000057FD46F65C10C0F204003DF051FDFEDE8A
:105D1000F0B503AF2DE9000F83B0804691F8A900DC
:105D20000C4638B1032856D046F66C10C0F2040079
:105D30003DF03EFDD4E918314FF0010C94F8AA2053
:105D4000002684F8A820CA1AC4E91A31C91AD4F85E
:105D500070E040F6FF70D4E928BA4FF0000984F8EB
:105D600094C088BF0E0B38BF4A46110B150518BFEB
:105D70000CEB1231C4E91DBAC4E91FE6C4E9219352
:105D8000C4E9231011B90020072149E004F180067D
:105D90000139C4F88C104CCE304401305D1C002A0F
:105DA000C4E9215047D004F1A800E16FC4F89C0079
:105DB000002084F84400C818B0FBF2F1D4E91AECD2
:105DC00001FB1200D4E91D65C4E90065C4E902ECD9
:105DD000C4F89800206168462146FFF7F1FE00995B
:105DE00008290DD00198072914D1D4F89C10C0B20D
:105DF0000978814210D0D4E923100029C6D1C2E726
:105E00000820C8F80000032084F8A90003B0BDE80A
:105E1000000FF0BD029A03E0D4F89820012007217A
:105E2000C8E900100120C8F8082084F8A90003B0D0
:105E3000BDE8000FF0BD46F60440C0F204003DF09E
:105E400091FCF0B503AF2DE9000B804691F85500A9
:105E5000894658B1032826D199F84C00C00728D1AB
:105E600009F13C03D9F848100DCB3CE0D9E90A12FE
:105E70000823D9F85000002509F1300CC9E908932E
:105E800001F10803C9E900559342C9E90255C9E97E
:105E90000455C9E906558CE8070010D808234A467E
:105EA00089F8545016E046F63430C0F204003DF054
:105EB0007FFC47F23870C0F204003DF079FC00230B
:105EC000C8E902010120C8E9005389F85500BDE87E
:105ED000000BF0BD002609F13C0C89F84C608CE801
:105EE0000D00C9F8481034F087F90122032889F819
:105EF0004C2040F09380D9E908231946D018164663
:105F0000002900F08980354615F8014BFF2C13D18C
:105F1000854200F081807578FF2D0DD1B51C85423A
:105F20007AD0B578FF2D07D1F51C854274D0F5786D
:105F300004390436FF2DE3D0072B40F28880167910
:105F400041F62E215579B2F806C0F443F607A4B203
:105F50004FEA540008BF81EA540086B27608C007B1
:105F600018BF4E40B0B24008F60718BF484086B28E
:105F70007608C00718BF4E40B0B24008F60718BFF9
:105F8000484086B27608C00718BF4E40B0B24008FD
:105F9000F60718BF484086B27608C00718BF4E40C3
:105FA00086EA050086B2C0074FEA560618BF4E4083
:105FB000B0B24008F60718BF484086B27608C0075E
:105FC00018BF4E40B0B24008F60718BF484086B22E
:105FD0007608C00718BF4E40B0B24008F60718BF99
:105FE000484086B27608C00718BF4E40B0B240089D
:105FF000F60718BF4840C143000408BF6FF0010115
:1060000088B260450DD099F854000125C8B9D9E986
:106010000C0189F854505DE7002550E70023012565
:106020004EE79188D9E90D0321F003068D070D464F
:1060300018BF351D28440830984204D90223012591
:106040003EE702233CE701231068002538E746F6C7
:1060500044350620C0F204051A4608212B463DF0BF
:10606000A9F8F0B503AF4DF8048D804691F85100C2
:106070000C4650B103282FD194F84800C00731D105
:1060800004F13803616C0DCB41E02568D4E90612B8
:10609000A088E36CA081A560A362C4E90412ADB13D
:1060A000D4E9086E00F1030C2CF003036363083697
:1060B000C4E90B561E44764554D89A420AD20CF4D1
:1060C000803604254FF0030C18464EE000254FF0B3
:1060D000010C49E000200BE046F65430C0F2040009
:1060E0003DF066FB47F23870C0F204003DF060FB03
:1060F000934284F8500045D8A06A0026216B04F131
:10610000380C226984F848608CE80D00616434F032
:1061100073F80122032884F8482010D1A18962690C
:106120008A4238D3206920F07BF8E16A88420AD09D
:1061300094F8500090B962690120636BD8E700259C
:106140004FF0030C10E0A1684FF6FF73D4E9045040
:1061500020EA0306A2894FF0020C06E0A568D4E904
:106160000412A0894FF0000C002680B208F1080349
:106170003043C8E900C507C3012084F851005DF829
:10618000048BF0BD46F674350020C0F204051946B4
:106190002B463DF00FF846F664330020C0F20403AE
:1061A0003DF008F8F0B503AF4DF8048D86B0804699
:1061B00091F820000C46DFE800F00324300C8C003E
:1061C000D4E90021D4E90203C4E90421C4E90603A7
:1061D00024E0264616F8980F68B1032817D1254603
:1061E00015F8940F50B1032830D046F69430C0F221
:1061F00004003DF0DDFAD4E9092116E0D4E90B21D1
:1062000019E046F6E430C0F204003DF0D1FA46F65B
:106210008430C0F204003DF0CBFAFEDE26460020BA
:1062200046F8242F716006F8740F0020254605F803
:10623000940F45E91A21C4E90D21D2E90023002079
:1062400084F89100C4F88C10C4E9192304F13C01CE
:1062500001A8FFF7F6FD019B022B4BD0DDE9022CD4
:10626000DB07049808D0022A62D1606B0168043110
:106270000160D4E90D21E0E7636BD2071E6862D0AC
:1062800085B281074FF6FC72294602EA000218BF68
:10629000111D314408311960D4E9063E0121C4E9D9
:1062A00021560025002B84F8981084F89410C4E936
:1062B0001F1C6662A5615DD0D4E90412496884F8A8
:1062C00079506267C4E9103EC4E91261A085C4F840
:1062D00028C004F1280101A8FFF7C3FE0199042991
:1062E00014D0DDE9040602291AD2D4E90421C4E954
:1062F000060693E70320022130702870C8F80010CA
:1063000084F8200006B05DF8048BF0BD0220C8F8C8
:106310000000042084F8200006B05DF8048BF0BD76
:10632000DDE9022C02D1656A002316E0012314E0A6
:106330000123022684F8983084F89430C4E91F625F
:10634000C4E921C009E00120002384F8980000225C
:1063500084F89400C4E92136E367C8E902C001204B
:10636000C8E90032C8E9046584F8200006B05DF889
:10637000048BF0BD46F6F430C0F204003CF0A7FFF9
:10638000F0B503AF2DE9000791F87030BBB1032BD6
:1063900040F09480894619F86C3F1BB3032B40F002
:1063A00093800D4615F8683F002B6FD08246032B73
:1063B0003ED047F21870C0F204003DF0F9F90B69C5
:1063C0008946D1E90254D1F800C005EB0333C1E995
:1063D0000554002503F58056C1E907C34E6209F84C
:1063E0006C5F02E0D1E907C34E6A00240D4605F850
:1063F000684F45E910C345F8386C4FF0010EB6F50B
:10640000801F4BD801249E4249D343EA0604240549
:1064100001D0022443E0012482460020C1E90D435B
:1064200001F13C0342F2107E81F8540083E84150B0
:1064300001F134000E46114600F004FE04280CD190
:106440000320082189F800002870CAF8001031469E
:1064500081F87000BDE80007F0BD044696F85400CE
:1064600088463146042807D1086D007834F0E8FFEB
:106470003146002086F856000120032C89F80000E0
:106480002870504618D1072203240DE0D1E90AC331
:106490000E6B4FF0010EB6F5801FB3D9012489F8B9
:1064A00000E0002285F800E080E81401012081F876
:1064B0007000BDE80007F0BD0022F5E746F6144085
:1064C000C0F204003DF074F947F2E860C0F2040045
:1064D0003DF06EF980B56F468A68930105D452018C
:1064E00007D4BDE880403AF0F4BBBDE880403AF004
:1064F000EBBDBDE880403AF010BE80B56F468A68BB
:10650000930105D4520107D4BDE880403AF0DDBCC8
:10651000BDE880403AF0D9BEBDE880403BF00CB801
:10652000D0B502AF90F844100339052911D8DFE83F
:1065300001F00310102C114790F88810042918BF9F
:10654000D0BD90F8FC10032904BF90F8F81003297F
:106550003BD0D0BD90F87010042904BF90F8D01043
:106560000329F6D190F8CC10032904BF90F8B81095
:106570000429EED1D0F8B41004460978084634F066
:106580005FFF002084F8BA00D0BD90F8B81003294E
:1065900004BF90F8B4100329DBD190F8B0100329A0
:1065A00004BF90F89C100429D3D1D0F89810044669
:1065B0000978084634F044FF002084F89E00D0BDDE
:1065C0004830BDE8D04000F013B890F8F41003292B
:1065D00004BF90F8E0100429BBD1D0F8DC100446C9
:1065E0000978084634F02CFF002084F8E200D0BD82
:1065F000B0B502AF90F8821005291CD0062904BF5F
:1066000090F8F410032939D190F8F010032935D10E
:1066100090F8EC10032904BF90F8D81004292DD16C
:10662000D0F8D41004460978084634F009FF002059
:1066300084F8DA00B0BD90F88011032918BFB0BD0E
:1066400090F8F010032911D0042912BF052990F801
:106650004C11032912D190F84811032904BF90F876
:10666000341104290AD18A24842112E090F87C1183
:10667000032904BF90F87811032900D0B0BD90F829
:106680007411032904BF90F860110429F6D1B624CF
:10669000B02100F1AC056858007834F0D1FE00203C
:1066A0002855B0BDB0B502AF90F88210052920D0B2
:1066B000062904BF90F8041103292FD190F8001186
:1066C000032904BF90F8FC10032927D190F8F81093
:1066D000032904BF90F8E41004291FD1D0F8E0107A
:1066E00004460978084634F0ABFE002084F8E60042
:1066F000B0BD90F88411032918BFB0BD90F8E01028
:1067000003290CD0042918BF052907D190F850118E
:10671000032904BF90F84C11032917D0B0BD90F89D
:1067200080110329FAD190F87C11032904BF90F855
:1067300078110329F2D190F87411032904BF90F85D
:1067400060110429EAD1C624C02109E090F848115B
:10675000032904BF90F834110429DFD19A2494212D
:1067600000F19C056858007834F06AFE0020285536
:10677000B0BDD4D4B0B502AF90F86910063907297E
:1067800000F29180DFE801F024468F048F5F8F04D0
:1067900090F89410042940F0868090F8081103299D
:1067A00004BF90F8041103297DD190F8001103294A
:1067B00004BF90F8EC10042975D1D0F8E810044615
:1067C0000978084634F03CFE002084F8EE00B0BDA5
:1067D00090F87811032918BFB0BD90F8D4100329A0
:1067E00055D0042918BF05295DD190F8441103291B
:1067F00004BF90F84011032955D190F83C110329AA
:1068000004BF90F8281104294DD19A24942100F155
:10681000900535E090F89410032919D0042942D14D
:1068200090F80811032904BF90F8041103293AD104
:1068300090F80011032904BF90F8EC10042932D11C
:1068400082247C211AE07030BDE8B040FFF72ABFF7
:1068500090F8C010042926D190F83411032904BF00
:1068600090F8301103291ED190F82C11032904BF90
:1068700090F81811042916D1AE24A82100F16C0556
:106880006858007834F0DCFD00202855B0BD90F841
:106890007411032907D190F87011032904BF90F8EF
:1068A0006C11032900D0B0BD90F86811032904BF12
:1068B00090F854110429F6D1C624C021A7E7B0B539
:1068C00002AF8AB0044690F8880080B103282AD12C
:1068D00094F8840048B303282ED194F8820038B38A
:1068E000032829D1204650F86C1F19BB24E0254607
:1068F000002155F8080F296060B104F10C030DF177
:10690000040C0ECB8CE80F0005A801AB227921689E
:1069100012F08FF9217920688DF8141005A912F072
:10692000ABFAA06828BB0AB0B0BD04F1440001E096
:1069300004F1540023F0CEF82546002155F8200F2D
:10694000296060B104F124030DF1040C0ECB8CE836
:106950000F0005A801AB227FA16912F06AF9217F1F
:10696000A0698DF8141005A912F086FA206A002893
:10697000D9D028460AB0BDE8B04023F0ABB8D4D493
:10698000B0B502AF88B00278DFE812F01F00F9005E
:10699000AD00D3005A001D014101E600A2019000A4
:1069A00078014E0066002E014200C0002F000C014D
:1069B0006C01C60118012201BA01D201A1009500A3
:1069C000F6012A00DE01EA01AE01013046F6B042CE
:1069D000079046F6A040C0F20400C0F204028CE02A
:1069E00047F2A302C0F204028EE1013047F24402F2
:1069F000079047F23400C0F20400C0F20402009095
:106A00000846114607AB0D223BF0DDFA08B0B0BDD9
:106A100047F202020846C0F2040211461F2208B0E3
:106A2000BDE8B0403BF081BD46F69D620846C0F22D
:106A300004021146242208B0BDE8B0403BF075BD09
:106A400046F6C4520846C0F204021146112208B0AC
:106A5000BDE8B0403BF069BD00F108020430079288
:106A600046F6E452082346F61864CDE90030C0F239
:106A7000040202A846F6F45C0DF11C0E0625C0F2D5
:106A8000040480E8344046F6887246F6B453C0F2F7
:106A9000040CC0F2040208461146CDF818C0C0F23A
:106AA000040310223BF05EFB08B0B0BD46F6656201
:106AB000C0F204024CE146F630220846C0F204025D
:106AC0001146042208B0BDE8B0403BF02EBD47F2AD
:106AD00093020846C0F204021146072208B0BDE83E
